:020000021000EC
:10000000B0EE0020214701004F080200D946010050
:10001000D9460100D9460100D9460100D946010060
:10002000000000000000000000000000493E010048
:10003000D946010000000000ED3D0100D946010055
:10004000D93E0100D93E0100D93E0100D93E010050
:10005000D93E0100D93E0100D93E0100D93E010040
:10006000D93E0100D93E0100D93E0100D93E010030
:10007000D93E0100D93E0100D93E0100D93E010020
:10008000D93E0100D93E0100D93E0100D93E010010
:10009000D93E0100D93E0100D93E0100D93E010000
:1000A000D93E0100D93E0100D93E0100D93E0100F0
:1000B000095F0100D93E0100D93E0100D93E01008F
:1000C000D93E0100D93E0100D93E0100D93E0100D0
:1000D000D93E0100D93E0100D93E0100D93E0100C0
:1000E000D93E0100D93E0100D93E0100D93E0100B0
:1000F000D93E0100D93E0100D93E0100D93E0100A0
:10010000D93E0100D93E0100D93E0100D93E01008F
:10011000D93E0100D93E0100D93E0100D93E01007F
:10012000D93E0100D93E0100D93E0100D93E01006F
:10013000D93E0100D93E0100D93E0100D93E01005F
:10014000D93E010000000000000000000000000097
:10015000000000000000000000000000000000009F
:10016000000000000000000000000000000000008F
:10017000000000000000000000000000000000007F
:10018000000000000000000000000000000000006F
:10019000000000000000000000000000000000005F
:1001A000000000000000000000000000000000004F
:1001B000000000000000000000000000000000003F
:1001C000000000000000000000000000000000002F
:1001D000000000000000000000000000000000001F
:1001E000000000000000000000000000000000000F
:1001F00000000000000000000000000000000000FF
:10020000DEE61E284CBBCE8F025B00003C000000E7
:10021000D879010001000000000001000000010089
:10022000FFFF02910000000000000000000000003D
:0C023000000000000000000000000000C2
:04023C00FFFFFFFFC2
:100240004FF0FF0C1CEAD0521EBF1CEAD15392EAB9
:100250000C0F93EA0C0F6FD01A4480EA010C400295
:1002600018BF5FEA41211ED04FF0006343EA5010EF
:1002700043EA5111A0FB01310CF00040B1F5000F31
:100280003EBF490041EAD3715B0040EA010062F1E0
:100290007F02FD2A1DD8B3F1004F40EBC25008BFCA
:1002A00020F00100704790F0000F0CF0004C08BFE8
:1002B00049024CEA502040EA51207F3AC2BFD2F1B5
:1002C000FF0340EAC250704740F400004FF00003C3
:1002D000013A5DDC12F1190FDCBF00F000407047FD
:1002E000C2F10002410021FA02F1C2F1200200FA3B
:1002F00002FC5FEA310040F1000053EA4C0308BF02
:1003000020EADC70704792F0000F00F0004C02BF52
:10031000400010F4000F013AF9D040EA0C0093F0CD
:10032000000F01F0004C02BF490011F4000F013B27
:10033000F9D041EA0C018FE70CEAD15392EA0C0F95
:1003400018BF93EA0C0F0AD030F0004C18BF31F000
:10035000004CD8D180EA010000F00040704790F0D6
:10036000000F17BF90F0004F084691F0000F91F07A
:10037000004F14D092EA0C0F01D142020FD193EA40
:100380000C0F03D14B0218BF084608D180EA0100C8
:1003900000F0004040F0FE4040F40000704740F0A4
:1003A000FE4040F44000704781F0004102E000BF91
:1003B00083F0004330B54FEA41044FEA430594EA25
:1003C000050F08BF90EA020F1FBF54EA000C55EA60
:1003D000020C7FEA645C7FEA655C00F0E2804FEA31
:1003E0005454D4EB5555B8BF6D420CDD2C4480EA13
:1003F000020281EA030382EA000083EA010180EA43
:10040000020281EA0303362D88BF30BD11F0004F90
:100410004FEA01314FF4801C4CEA113102D04042C6
:1004200061EB410113F0004F4FEA03334CEA133301
:1004300002D0524263EB430394EA050F00F0A78019
:10044000A4F10104D5F1200E0DDB02FA0EFC22FA14
:1004500005F2801841F1000103FA0EF2801843FA08
:1004600005F359410EE0A5F120050EF1200E012AF9
:1004700003FA0EFC28BF4CF0020C43FA05F3C01837
:1004800051EBE37101F0004507D54FF0000EDCF1B0
:10049000000C7EEB00006EEB0101B1F5801F1BD359
:1004A000B1F5001F0CD349085FEA30004FEA3C0C5D
:1004B00004F101044FEA445212F5800F80F09A8053
:1004C000BCF1004F08BF5FEA500C50F1000041EB57
:1004D000045141EA050130BD5FEA4C0C404141EB5B
:1004E0000101013C28BFB1F5801FE9D291F0000F56
:1004F00004BF01460020B1FA81F308BF2033A3F105
:100500000B03B3F120020CDA0C3208DD02F1140CFB
:10051000C2F10C0201FA0CF021FA02F10CE002F136
:100520001402D8BFC2F1200C01FA02F120FA0CFC2F
:10053000DCBF41EA0C019040E41AA2BF01EB045178
:10054000294330BD6FEA04041F3C1CDA0C340EDC76
:1005500004F11404C4F1200220FA04F001FA02F3B9
:1005600040EA030021FA04F345EA030130BDC4F177
:100570000C04C4F1200220FA02F001FA04F340EA6C
:100580000300294630BD21FA04F0294630BD94F01D
:10059000000F83F4801306BF81F480110134013D04
:1005A0004EE77FEA645C18BF7FEA655C29D094EA75
:1005B000050F08BF90EA020F05D054EA000C04BFF3
:1005C0001946104630BD91EA030F1EBF00210020DE
:1005D00030BD5FEA545C05D14000494128BF41F07D
:1005E000004130BD14F580043CBF01F5801130BDE1
:1005F00001F0004545F0FE4141F470014FF000006C
:1006000030BD7FEA645C1ABF194610467FEA655C1C
:100610001CBF0B46024650EA013406BF52EA0335BE
:1006200091EA030F41F4002130BD00BF90F0000FAC
:1006300004BF0021704730B54FF4806404F13204E8
:100640004FF000054FF0000150E700BF90F0000FA1
:1006500004BF0021704730B54FF4806404F13204C8
:1006600010F0004548BF40424FF000013EE700BF98
:1006700042004FEAE2014FEA31014FEA02701FBF28
:1006800012F07F4393F07F4F81F06051704732F05A
:100690007F4208BF704793F07F4F04BF41F40021B1
:1006A000704730B54FF4607401F0004521F000410F
:1006B0001CE700BF50EA010208BF704730B54FF099
:1006C00000050AE050EA010208BF704730B511F09A
:1006D000004502D5404261EB41014FF4806404F1D2
:1006E00032045FEA915C3FF4D8AE4FF003025FEA58
:1006F000DC0C18BF03325FEADC0C18BF033202EBDC
:10070000DC02C2F1200300FA03FC20FA02F001FA35
:1007100003FE40EA0E0021FA02F11444BDE600BFD8
:1007200070B54FF0FF0C4CF4E06C1CEA11541DBF87
:100730001CEA135594EA0C0F95EA0C0F00F0DEF852
:100740002C4481EA030621EA4C5123EA4C5350EA37
:10075000013518BF52EA033541F4801143F4801388
:1007600038D0A0FB02CE4FF00005E1FB02E506F019
:100770000042E0FB03E54FF00006E1FB03569CF06E
:10078000000F18BF4EF0010EA4F1FF04B6F5007F74
:1007900064F5407404D25FEA4E0E6D4146EB0606E6
:1007A00042EAC62141EA55514FEAC52040EA5E506F
:1007B0004FEACE2EB4F1FD0C88BFBCF5E06F1ED819
:1007C000BEF1004F08BF5FEA500E50F1000041EB50
:1007D000045170BD06F0004646EA010140EA0200FD
:1007E00081EA0301B4EB5C04C2BFD4EB0C0541EA1F
:1007F000045170BD41F480114FF0000E013C00F334
:10080000AB8014F1360FDEBF002001F0004170BD57
:10081000C4F10004203C35DA0C341BDC04F1140470
:10082000C4F1200500FA05F320FA04F001FA05F2FC
:1008300040EA020001F0004221F0004110EBD370C9
:1008400021FA04F642EB06015EEA430E08BF20EAF5
:10085000D37070BDC4F10C04C4F1200500FA04F398
:1008600020FA05F001FA04F240EA020001F000412A
:1008700010EBD37041F100015EEA430E08BF20EA9D
:10088000D37070BDC4F1200500FA05F24EEA020EE5
:1008900020FA04F301FA05F243EA020321FA04F014
:1008A00001F0004121FA04F220EA020000EBD370CB
:1008B0005EEA430E08BF20EAD37070BD94F0000FCB
:1008C0000FD101F00046400041EB010111F4801FFF
:1008D00008BF013CF7D041EA060195F0000F18BFB0
:1008E000704703F00046520043EB030313F4801FEC
:1008F00008BF013DF7D043EA0603704794EA0C0FA6
:100900000CEA135518BF95EA0C0F0CD050EA4106BB
:1009100018BF52EA4306D1D181EA030101F0004138
:100920004FF0000070BD50EA410606BF1046194660
:1009300052EA430619D094EA0C0F02D150EA01366C
:1009400013D195EA0C0F05D152EA03361CBF1046AD
:1009500019460AD181EA030101F0004141F0FE414C
:1009600041F470014FF0000070BD41F0FE4141F4D0
:10097000780170BD70B54FF0FF0C4CF4E06C1CEAD0
:1009800011541DBF1CEA135594EA0C0F95EA0C0F85
:1009900000F0A7F8A4EB050481EA030E52EA033540
:1009A0004FEA013100F088804FEA03334FF0805561
:1009B00045EA131343EA12634FEA022245EA11158E
:1009C00045EA10654FEA00260EF000419D4208BF3F
:1009D000964244F1FD0404F5407402D25B084FEAEC
:1009E0003202B61A65EB03055B084FEA32024FF498
:1009F00080104FF4002CB6EB020E75EB030E22BFF5
:100A0000B61A754640EA0C005B084FEA3202B6EBB4
:100A1000020E75EB030E22BFB61A754640EA5C0063
:100A20005B084FEA3202B6EB020E75EB030E22BFF3
:100A3000B61A754640EA9C005B084FEA3202B6EBF4
:100A4000020E75EB030E22BFB61A754640EADC00B3
:100A500055EA060E18D04FEA051545EA16754FEA15
:100A600006164FEAC30343EA52734FEAC2025FEA33
:100A70001C1CC0D111F4801F0BD141EA00014FF0C2
:100A800000004FF0004CB6E711F4801F04BF014393
:100A90000020B4F1FD0C88BFBCF5E06F3FF6AFAEAF
:100AA000B5EB030C04BFB6EB020C5FEA500C50F13F
:100AB000000041EB045170BD0EF0004E4EEA1131C2
:100AC00014EB5C04C2BFD4EB0C0541EA045170BDC9
:100AD00041F480114FF0000E013C90E645EA060E0D
:100AE0008DE60CEA135594EA0C0F08BF95EA0C0F3B
:100AF0003FF43BAF94EA0C0F0AD150EA01347FF483
:100B000034AF95EA0C0F7FF425AF104619462CE759
:100B100095EA0C0F06D152EA03353FF4FDAE1046BC
:100B2000194622E750EA410618BF52EA43067FF40D
:100B3000C5AE50EA41047FF40DAF52EA43057FF49D
:100B4000EBAE12E74FEA4102B2F1E04324BFB3F546
:100B5000001CDCF1FE5C0DD901F0004C4FEAC00234
:100B60004CEA5070B2F1004F40EB830008BF20F018
:100B70000100704711F0804F21D113F13872BCBFD2
:100B800001F00040704741F480114FEA5252C2F127
:100B90001802C2F1200C10FA0CF320FA02F018BF70
:100BA00040F001004FEAC1234FEAD32303FA0CFCC3
:100BB00040EA0C0023FA02F34FEA4303CCE77FEA52
:100BC000625307D150EA01331EBF4FF0FE4040F49C
:100BD0004000704701F0004040F0FE4040F400004B
:100BE000704700BF80F0004002E000BF81F000418C
:100BF00042001FBF5FEA410392EA030F7FEA226CC3
:100C00007FEA236C6AD04FEA1262D2EB1363C1BF52
:100C1000D218414048404140B8BF5B42192B88BFC1
:100C2000704710F0004F40F4000020F07F4018BFE4
:100C3000404211F0004F41F4000121F07F4118BF04
:100C4000494292EA030F3FD0A2F1010241FA03FCAC
:100C500010EB0C00C3F1200301FA03F100F0004394
:100C600002D5494260EB4000B0F5000F13D3B0F15C
:100C7000807F06D340084FEA310102F10102FE2ACB
:100C800051D2B1F1004F40EBC25008BF20F001003B
:100C900040EA03007047490040EB0000013A28BFDA
:100CA000B0F5000FEDD2B0FA80FCACF1080CB2EB5D
:100CB0000C0200FA0CF0AABF00EBC25052421843DB
:100CC000BCBFD0401843704792F0000F81F4000180
:100CD00006BF80F400000132013BB5E74FEA410353
:100CE0007FEA226C18BF7FEA236C21D092EA030FBF
:100CF00004D092F0000F08BF0846704790EA010F39
:100D00001CBF0020704712F07F4F04D1400028BF65
:100D100040F00040704712F100723CBF00F5000047
:100D2000704700F0004343F0FE4040F4000070477D
:100D30007FEA226216BF08467FEA23630146420229
:100D400006BF5FEA412390EA010F40F4800070473C
:100D50004FF0000304E000BF10F0004348BF4042E2
:100D60005FEA000C08BF704743F0964301464FF01E
:100D700000001CE050EA010208BF70474FF000037A
:100D80000AE000BF50EA010208BF704711F00043BB
:100D900002D5404261EB41015FEA010C02BF84468B
:100DA0000146002043F0B64308BFA3F18053A3F5EA
:100DB0000003BCFA8CF2083AA3EBC25310DB01FA31
:100DC00002FC634400FA02FCC2F12002BCF1004FB5
:100DD00020FA02F243EB020008BF20F00100704746
:100DE00002F1200201FA02FCC2F1200250EA4C009A
:100DF00021FA02F243EB020008BF20EADC707047E0
:100E000053B94AB9002908BF00281CBF4FF0FF3171
:100E10004FF0FF3000F00CB8ADF1080C6DE904CED6
:100E200000F008F8DDF804E0DDE9022304B07047C3
:100E3000704700BF2DE9F04F07468C460846099ED3
:100E400015463C461946002B40F0C5808242B2FA56
:100E500082F746D94FB1C7F1200E00FA07F3BD4023
:100E600024FA0EFEBC404EEA030C4FEA15481FFA66
:100E700085FE220CBCFBF8F908FB19C309FB0EFA2E
:100E800042EA03439A4528D9EB1809F1FF3004D20E
:100E90009A4502D9A9F102002B44A3EB0A03A4B29C
:100EA000B3FBF8F208FB123302FB0EFE44EA0344E4
:100EB000A64514D92C1902F1FF3303D2A64501D956
:100EC000931E2C44A4EB0E0443EA00401EB1FC40E8
:100ED000002334607360BDE8F08F4846DDE71346B9
:100EE000F0E702B9FFDE87BB831A01214FEA154EF6
:100EF000AAB2200CB3FBFEFC0EFB1C330CFB02F869
:100F000040EA0343984562D9EB180CF1FF3004D254
:100F1000984502D9ACF102002B44A3EB0803A4B21C
:100F2000B3FBFEFC0EFB1C330CFB02F244EA034451
:100F3000A2424ED92C190CF1FF3304D2A24202D99D
:100F4000ACF102032C44A41ABEE7C7F1200CBD404B
:100F500000FA07F320FA0CF84FEA154E24FA0CFCBD
:100F6000BC404CEA0302ABB2B8FBFEFC110C0EFB1A
:100F70001C800CFB03F941EA0040814523D9281865
:100F80000CF1FF3104D2814502D9ACF102012844B1
:100F9000A0EB090092B2B0FBFEFC0EFB1C000CFBA8
:100FA00003F842EA004398450FD9EB180CF1FF32E1
:100FB00004D2984502D9ACF102022B44A3EB0803FA
:100FC00042EA014192E76146E2E76246F6E760469F
:100FD000A3E76346B7E7834205D90EB1C6E90070BF
:100FE0000021084677E7B3FA83F181B9834201D340
:100FF000BA420AD8BC1A60EB030301209C46002EBB
:1010000067D0C6E9004C002165E70846F7E7C1F163
:10101000200C8B4002FA01F522FA0CF420FA0CFBAA
:1010200027FA0CF28F401C4300FA01F34FEA1449EF
:1010300013431FFA84FE1A0CBBFBF9F809FB18BB1B
:1010400008FB0EFA42EA0B4292453ED9A21808F17B
:10105000FF3004D2924502D9A8F102002244A2EB4B
:101060000A029BB2B2FBF9F809FB182208FB0EFE3C
:1010700043EA024296452AD9A21808F1FF3304D266
:10108000964502D9A8F10203224443EA0040A2EBAC
:101090000E02A0FB05939A42CE46984602D306D193
:1010A0004F4504D20138B9EB050E63EB040886B155
:1010B000B7EB0E0362EB080707FA0CFCCB40CF40FE
:1010C0004CEA0303C6E900379DE74046C7E74346BD
:1010D000DBE73146FFE610F8012B11F8013B012A4E
:1010E00028BF9A42F7D0D01A7047034613F8012B55
:1010F000002AFBD1181A01387047000000000000D8
:1011000002B310B514460F291FD8072804D00928A8
:1011100012D06FF07F000EE00F4B33F8110078B162
:10112000FFF794FA0AA3D3E90023FFF7F9FAFFF7D0
:1011300009FD2060002010BD084B33F81100EEE7D8
:101140000748F6E76FF0150070476FF01500F2E7FB
:101150007B14AE47E17A2440187102003871020016
:101160000AD7A34090F8243033B9826A044B1A603E
:1011700001229A80002070476FF08500704700BF01
:1011800020CC002030B587B0164C03942046FFF7E2
:10119000ACFF049001238DF8143003AA0192ADF83E
:1011A000083040F2D243ADF80A300F4B0F4A9B1A79
:1011B000DB084FF00005032262F302056FF3C5055B
:1011C00063F38F152046FFF790FF02462B4621461A
:1011D000074801F021FF01A9064810F0F7FA07B00F
:1011E00030BD00BF1854020034530200EC5202001C
:1011F0002C540200A8CB002070B505460C4680296F
:101200000FD8002600E0241A802C0DD9A4F180020A
:101210000C49284610F0CBFB034670B10028F2DAE7
:101220000DE06FF07906EFE722460649284610F0F8
:10123000C3FB034618B9334601E06FF004031846B8
:1012400070BD00BF28CC0020B0B500AF05461446E5
:1012500002F1080323F00703ADEB030D684613F01A
:1012600035FC00220DF804200D4B0E495B1ADB08FB
:101270004FF00004032161F3020462F3C50463F339
:101280008F14284601F004FD0546684601F000FD74
:10129000024623462946044801F0BEFEBD46B0BDC5
:1012A00034530200EC52020048540200F0B587B0FB
:1012B000074615461E468DF808101C4C0094204623
:1012C000FFF713FF01900395049603F019FEADF8A4
:1012D00014009DF816306FF300038DF81630DBB262
:1012E0006FF341038DF81630324629461048FFF758
:1012F000ABFF104B104A9B1ADB084FF0000503228E
:1013000062F302056FF3C50563F38F152046FFF7FF
:10131000ECFE02462B462146084801F07DFE694658
:10132000384610F0B4F907B0F0BD00BF50540200C9
:101330006454020034530200EC5202007454020060
:1013400070B582B00C460978092900F21C81DFE8EB
:1013500011F00A0030004300BB001A011A011A0103
:10136000E0001A010501E16981B18F4B8F4A9B1A98
:10137000DB084FF00002012060F302026FF3C502A8
:1013800063F38F128A4801F015FE23E0864B874AEB
:101390009B1ADB084FF00001032262F302016FF396
:1013A000C50163F38F11834801F0DAFDFFF7EAFE10
:1013B00010E07D4B7D4A9B1ADB084FF000020321B1
:1013C00061F302026FF3C50263F38F12E1697A4899
:1013D00001F0F0FD02B070BD0546734A734BD21A9E
:1013E000D2084FF00003032161F302036FF3C5033A
:1013F00062F38F136269E169704801F00DFE616963
:101400002846FFF7F9FE0646237B012B34D0002E39
:101410003ADA16F17A0F44D0634C644BE41AE408CC
:101420004FF00002012363F302026FF3C50264F37D
:101430008F123146624801F0BDFD4FF000010323D9
:1014400063F302016FF3C50164F38F115D4801F08E
:1014500087FD284610F08CF901460028BAD04FF0DD
:101460000002012060F302026FF3C50264F38F12E1
:10147000554801F09FFDADE7238BADF8043001A97D
:10148000524810F047F9C2E7514D62692946514868
:10149000FFF7DAFE63692A4601214C48FFF706FF91
:1014A00098E7414A414BD21AD2084FF0000301217C
:1014B00061F302036FF3C50362F38F138022616946
:1014C000454801F0A9FD85E7E16981B1364B374A0E
:1014D0009B1ADB084FF00002012060F302026FF359
:1014E000C50263F38F123D4801F064FD72E72E4B95
:1014F0002E4A9B1ADB084FF00002032161F302021F
:101500006FF3C50263F38F12A188354801F052FDD5
:1015100060E7E16981B1244B244A9B1ADB084FF054
:101520000002012060F302026FF3C50263F38F1221
:101530002C4801F03FFD4DE71B4B1C4A9B1ADB0872
:101540004FF00002032161F302026FF3C50263F35F
:101550008F12A188244801F02DFD3BE7E1690029A5
:101560003FF438AF104B114A9B1ADB084FF00002D2
:10157000012060F302026FF3C50263F38F121B4870
:1015800001F018FD26E7084B084A9B1ADB084FF0CC
:101590000002032060F302026FF3C50263F38F12AF
:1015A000134801F007FD15E734530200EC52020026
:1015B0008C540200A4540200BC540200DC5402000B
:1015C000585502007855020098550200A8CB00201B
:1015D00028CC0020FC54020008550200B45502003B
:1015E000CC550200E4550200FC55020014560200DE
:1015F0002C560200014011F0010F00D1704708B5D0
:1016000023230C4A01210C48FFF750FE014600B984
:1016100008BD0A4B0A4A9B1ADB084FF00002012062
:1016200060F302026FF3C50263F38F12054801F005
:10163000C1FCEDE74C560200A8CB00203453020059
:10164000EC5202007056020038B5244C244BE41AC8
:10165000E40803254FF0000165F302016FF3C501B3
:1016600064F38F111F4801F07BFC002005F092FF0E
:10167000002006F08BF94FF0000165F302016FF3D3
:10168000C50164F38F11184801F06AFC11F07EFC6B
:10169000044688B9114B124A9B1ADB084FF000012F
:1016A000032262F302016FF3C50163F38F110F4848
:1016B00001F056FC204638BD084B094A9B1AEB4006
:1016C0004FF0000265F302026FF3C50263F38F125D
:1016D0000146074801F06EFCECE700BF34530200FE
:1016E000EC520200845602009C560200DC560200B6
:1016F000B456020070B59CB05022002107A813F028
:10170000F2F9012309930A931BAB07AA00212E4883
:101710000EF063FF0646C8B91B9C002C4DD06169D2
:10172000082927D0294B2A4A9B1ADB08012262F399
:1017300002056FF3C50563F38F15ADF8005018234C
:101740000822244801F0D2FB2468E6E71F4B204A18
:101750009B1ADB084FF00002012161F302026FF3D4
:10176000C50263F38F1201461B4801F023FC6FF0A2
:10177000090625E0A3695B6818494B6001200880D1
:1017800045F607334B80102303AA04310FF024F9E8
:101790000E4B0F4A9B1ADB084FF00004032262F342
:1017A00002046FF3C50463F38F1403A801F070FA09
:1017B000014622460A4801F0FDFB1B980EF011FF7E
:1017C00030461CB070BD00BFF0560200345302001A
:1017D000EC520200385702000857020090CB00205C
:1017E0002057020030B589B02248FFF77EFC58BB75
:1017F000214A172102A80AF0D3FD014640BB00236D
:101800008DF8173002AB00930F231C4A14211C489B
:101810000DF006F91B4B1C4A9B1ADB084FF0000425
:10182000042262F302046FF3C50463F38F14144DB2
:10183000284601F02DFA024623461449144801F0C7
:10184000EBFB284609B030BD0D4B00221A70E1E7D2
:101850000C4B0D4A9B1ADB084FF00002012060F38D
:1018600002026FF3C50263F38F120A4801F0A2FB74
:10187000D0E700BF147202005C57020088570200D4
:101880000CCC002034530200EC520200F858020045
:10189000945702006457020038B504460FF0B5FEB5
:1018A000FFF728FF0546D0B9154B6363154BA364BA
:1018B000FFF798FFE062FFF718FC20630023E36363
:1018C000A363042284F85E200F4AE264802222652A
:1018D0000E496165A26584F82430284638BD0C4B5A
:1018E0000C4A9B1ADB084FF00001012262F302014F
:1018F0006FF3C50163F38F11074801F031FBECE78B
:1019000090CB002041130100A8CC002028CD00205E
:1019100034530200EC520200A857020008B50146F9
:10192000084B094A9B1ADB084FF00002012060F3C4
:1019300002026FF3C50263F38F12044801F03AFB11
:1019400008BD00BF34530200EC520200D057020021
:101950002DE9F04F85B09C4B9C4A9B1ADB084FF059
:101960000001032262F302016FF3C50163F38F11DB
:10197000974801F0F5FA00E0D4B1FFF765FE0446A0
:101980000028F9D0904B914A9B1ADB08032262F39E
:1019900002066FF3C50663F38F16324678218D4831
:1019A00001F008FB4FF4701000210CF0DBF9E3E7C5
:1019B0008948FFF771FF014680B1834B834A9B1A28
:1019C000DB084FF00002012060F302026FF3C50252
:1019D00063F38F12814801F0EDFA73E0804804F060
:1019E0004FFF0023BDF80E604EE0774B774A9B1AFD
:1019F000DB08032262F302076FF3C50763F38F1757
:101A00003A463C21774801F0D5FA4FF4F010002116
:101A10000CF0A8F93BE06C4B6C4A9B1ADB080122E6
:101A200062F302096FF3C50963F38F194A466E48E2
:101A300001F0C0FA27E0644B644A9B1ADB080122DC
:101A400062F3020A6FF3C50A63F38F1A0EF087FF81
:101A500052460168654801F0ADFA5B4B5B4A9B1A40
:101A6000DB08032262F302056FF3C50563F38F15EC
:101A700029465F4801F074FA57480FF079FE014695
:101A8000002840F0918023465C1C002BADD15248C9
:101A90000FF0D5FD01460028BDD14F48FFF762FB8E
:101AA000014610B3484B494A9B1ADB084FF000022D
:101AB000012060F302026FF3C50263F38F124D48F9
:101AC00001F078FA05B0BDE8F08F4B4BB3F9063062
:101AD00013F0010F2FD1484BB3F906309AB213F02F
:101AE000080F41D112F0200F4ED13B480FF014FFE8
:101AF0000246012140480EF05FFE00289BDB36487D
:101B00000FF0C1FE01460028DFD010F10B0FDCD032
:101B10002D4B2E4A9B1ADB080122019862F302002A
:101B200002466FF3C50263F38F12ADF80420334809
:101B300001F040FA91E728480FF01DFF0146002808
:101B4000C9D0214B214A9B1ADB080122029862F37B
:101B5000020002466FF3C50263F38F12ADF808204E
:101B6000274801F027FA78E7174B184A9B1ADB0839
:101B7000012262F3020B6FF3C50B63F38F1B59460F
:101B8000204801F0EDF968E70F4B104A9B1ADB087B
:101B9000012262F302066FF3C50663F38F16314626
:101BA000194801F0DDF958E7074B084A9B1ADB0892
:101BB000012262F302086FF3C50863F38F184246EF
:101BC000124801F0F7F95EE734530200EC520200CC
:101BD000F457020014580200A8CB00202C58020031
:101BE000F51501003C5802005C5802007C580200C8
:101BF000785502006C58020020CC00208858020062
:101C0000A0580200B0580200B8580200C4580200A0
:101C100008B5032808D8400108300A4B1844D0E81A
:101C2000AF3F43B1002008BD0EF099FE09230360C9
:101C30004FF0FF30F7E70EF092FE092303604FF0FC
:101C4000FF30F0E7A8CD002008B50020032809DC0C
:101C5000430103F10802074B1344D3E8AF3F3BB104
:101C60000130F3E70EF07BFE172303604FF0FF30E7
:101C700008BD00BFA8CD002000B50246530103F106
:101C800008010E4B0B44D3E8AF1FA9B1481ED3E89F
:101C9000EFCF8C4504D1C3E8EE0FBEF1000FF6D1B3
:101CA000ECD1012906D1054B510103EB4212002072
:101CB000585050605DF804FB0846FBE7A8CD0020B3
:101CC00040010830054B0344D3E8EF0F421CC3E842
:101CD000E12F0029F8D10130704700BFA8CD0020C6
:101CE00070B504460D461646FFF792FF00280FDB3D
:101CF0002DB1084B03EB44135B68AB4203D1640185
:101D0000044B185970BD0EF02AFE06600020F9E75A
:101D10000020F7E7A8CD002070B504460E46154612
:101D2000FFF776FF002810DB094B03EB44135B68D9
:101D3000336035B1630103F10802054B13440433EA
:101D40002B606401024B185970BD0020FCE700BFF6
:101D5000A8CD002010B54FF0FF324FF0FF330E48F2
:101D60000BF080F9FFF770FF041E04DA0A480BF04D
:101D700003FA204610BD2046FFF7A2FF0748630183
:101D800000EB44110022C2504A600833184404306A
:101D900012F0FCF9EAE700BF04C70020A8CD00203C
:101DA00008B5034610460B4A4FEA431E02EB431C9C
:101DB00042F80E10CCF8040050B1C26842B173462C
:101DC0000833044A1344043340F205120DF03AFD7F
:101DD00008BD00BFA8CD002008B50B6801330B601B
:101DE000014B1B68984708BD00C50020014B1860D7
:101DF000704700BF00C5002000B583B002460B4607
:101E00000021019101A9034800F0D8FA03B05DF860
:101E100004FB00BFD91D010010B584B00446019039
:101E200002910021039101A9054800F0C7FA039B24
:101E3000029A934201DA0022E254039804B010BDE2
:101E4000E1F801002DE9F04383B004460846154649
:101E5000238B13F0080F05D103F00706002300932E
:101E6000019369E0012909D043F02003238385F31E
:101E70001188BFF36F8F03B0BDE8F08343F0100308
:101E80002383F4E720460DF086FD57E0D4F8149044
:101E90004A46694620460DF097FD00275AE023691F
:101EA0001F68062120460DF04FFD4FF0000951E05C
:101EB00023695F68042120460DF046FD4FF00009BC
:101EC00048E023699F68052120460DF03DFD4FF055
:101ED00000093FE0002246E0002244E043F008030E
:101EE000238385F31188BFF36F8F002944D1009BB2
:101EF0002BB14B464246694620460DF0DCFD17B13A
:101F000025492046B8474FF02003EFF3118583F3AE
:101F10001288BFF36F8F238B23F008032383238B57
:101F200013F0100F2ED023F0100323830120268BF3
:101F300006F0070600289AD00228A3D0002896D0E1
:101F40000128A3D00328AAD00428B1D00528B8D0EE
:101F50000027B946238B03F00708B045BAD0A26822
:101F6000002AB9D001221146002AB7D1009A002ACE
:101F7000B4D1002FB2D1D2E74A46414620460DF0F7
:101F8000EBFCB4E713F0200F04D023F020032383ED
:101F90000220CCE70020CAE7E5FA01008446026887
:101FA000002005E000EB8000013203EB40003038F8
:101FB00013780449595C11F0040FF3D1CCF80020D8
:101FC000704700BFB375020070B582B004460023AD
:101FD0000360436083604B78252B02D04E1C0125A3
:101FE0001FE0881CE37045E1237843F0040323706D
:101FF000B5B1013614E0237843F008032370F7E706
:10200000237843F010032370F2E7237843F0200392
:102010002370EDE7237843F040032370E8E70025C1
:1020200045B33378203B102BF9D801A252F823F0A6
:10203000012001001F2001001F2001000B200100D2
:102040001F2001001F2001001F2001001F20010090
:102050001F2001001F2001001F200100F71F0100A9
:102060001F200100E91F01001F2001001F200100A7
:1020700015200100237803F04403442B5FD0019620
:10208000237843F08003237033782A2B5CD001A897
:10209000FFF784FF019B9E420FD0237843F080031B
:1020A00023706060DBB2C3F34003002854DB0022DE
:1020B0001343227863F341022270019B01931B7842
:1020C0002E2B14BF00230123627863F34102627058
:1020D000002B43D0019B5A1C01925B782A2B3FD0E6
:1020E00001A8FFF75BFFA0602378C3F3400300283B
:1020F0003EDB00221343227863F3410222700198F1
:1021000003784C3B2E2B00F29D80DFE803F0909B80
:102110009B9B9B9B9B9B9B9B9B9B9B9B9B9B9B9B0F
:102120009B9B9B9B9B9B9B9B9B9B339B579B459B01
:102130009B9B9B9B9B9B899B9B9B9B9B8200237850
:102140006FF3861323709AE7637843F0010363709B
:10215000334601330193B1E70122A9E70198CFE7A4
:10216000637843F004036370104601300190C7E7C1
:102170000122BFE7421C4378682B06D06378022116
:1021800061F3C603637010461EE06378012262F3B8
:10219000C6036370023017E0421C43786C2B06D0F4
:1021A0006378032161F3C603637010460CE0637823
:1021B000042262F3C6036370023005E063780522EF
:1021C00062F3C6036370013010F8013BE370A3F1C2
:1021D0004102372A7DD8DFE802F05E7C7C7C5E5EBF
:1021E0005E7C7C7C7C7C7C7C7C7C7C7C7C7C7C7C4D
:1021F0007C4F7C7C7C7C7C7C7C7C5E7C4F3A5E5E15
:102200005E7C3A7C7C7C7C654F717C7C717C4F7CF5
:102210007C4F6378062262F3C60363700130D3E714
:102220006378072262F3C60363700130CCE76378FA
:10223000082262F3C60363700130237843F002037F
:102240002370C1E763786FF3C6036370BCE7A278BD
:10225000012161F30202A270627802F07802402A42
:1022600010D0632B13D02378C3F34002154365F3DA
:102270004103237002B070BDA278022161F3020213
:10228000A270E9E7217841F001012170E9E7151E0C
:1022900018BF0125E7E7A378042262F30203A370C5
:1022A0000125E0E7A378032262F30203A3706378B9
:1022B00003F07803402BD6D10125D4E7A37803227D
:1022C00062F30203A370637813F0780FCBD001257B
:1022D000C9E7237843F001032370C4E72DE9F04FE9
:1022E00083B004460D4601929A460C9ED378324A3A
:1022F00013F802B00BF0030B6F2B0FD006D9702B25
:102300000FD0782B10D14FF0100923E0582B02D0BA
:102310004FF00A091EE04FF010091BE04FF00809CA
:1023200018E04FF0100915E04FF00A0912E0D2B2A0
:102330003032D2B206F8012D3A46434620462946AD
:10234000FEF75EFDBC4275F1000319D3564517D95F
:1023500004460D464FF000084F464A464346204685
:102360002946FEF74DFD092AE1D9BBF1010F03D043
:10237000D2B25732D2B2DDE7D2B23732D2B2D9E7D7
:10238000019B1B7813F0200F05D0B9F1080F06D080
:10239000B9F1100F09D0304603B0BDE8F08F019AB3
:1023A000937843F008039370F5E7019A937843F02C
:1023B00010039370EFE700BFB37502002DE9F04FF3
:1023C00091B006460D4691460393002499F800000B
:1023D000002800F0D582252808D009F101092946F6
:1023E000B0470028C0F2CD820134EFE70023049308
:1023F00005930693079308930993494606A8FFF7A8
:10240000E3FD02909DF8193013F0010F00F0978062
:10241000039B1A1D03921F68002FC0F288809DF84D
:10242000193013F0040F00F09C80039B1A1D0392D7
:10243000D3F800A0BAF1000FC0F28A8000230793FE
:1024400008939DF81A3003F007039DF81910C1F3A3
:10245000C301012B00F08E80022B00F0D380042BEF
:1024600000F02481032B00F03B819DF8188018F0C8
:10247000030B40F03B819DF81B30253B532B00F2B2
:10248000E681DFE813F04001E401E401E401E40146
:10249000E401E401E401E401E401E401E401E40114
:1024A000E401E401E401E401E401E401E401E40104
:1024B000E401E401E401E401E401E401E401E401F4
:1024C000E401E401E401E401E401E401E401E401E4
:1024D000E401E401E401E401E401E401E401E401D4
:1024E000E401E401E401E401E401E4018101E40127
:1024F000E401E401E401E401E401E401E401E401B4
:10250000E4015E016701E401E401E401E401670123
:10251000E401E401E401E401BE018101A201E4015E
:10252000E4014D01E4018101E401E40181019DF830
:10253000183043F004038DF818307F426FE79DF99F
:102540001830002B02DB4FF0FF3768E7079F66E784
:102550009DF819306FF341038DF819304FF0FF3AB1
:102560006CE713F0020F02D0DDF820A066E74FF011
:10257000FF3A63E7CB1E042B04D8DFE803F00B1D02
:1025800029353500039B1A1D03921B68DA17049343
:10259000059206E0039B1A1D03921B68DA17049349
:1025A0000592012928D002297FF45FAFBDF91030D0
:1025B000DA170493059258E7039B073323F00703C8
:1025C00003F108020392D3E90023CDE90423E8E7ED
:1025D000039B073323F0070303F108020392D3E9B7
:1025E0000023CDE90423DCE7039B1A1D03921B683B
:1025F000DA1704930592D4E79DF810300493002372
:10260000059332E7CB1E042B04D8DFE803F00B1F41
:1026100035414100039B1A1D03921B68049300235C
:1026200005931EE09DF81B30632B07D0039B1A1DFA
:1026300003921B6804930023059312E0039B1A1D69
:1026400003921B680493002305930AE0039B07335E
:1026500023F0070303F108020392D3E90023CDE935
:10266000042301291CD002297FF4FFAEBDF81030ED
:10267000049300230593F8E6039B073323F0070335
:1026800003F108020392D3E90023CDE90423E8E72C
:10269000039B1A1D03921B68049300230593E0E734
:1026A0009DF81030049300230593DEE608290BD033
:1026B000039B073323F0070303F108020392D3E9D6
:1026C0000023CDE90423D0E6039B073323F007035F
:1026D00003F108020392D3E90023CDE90423C4E601
:1026E000039B1A1D03921B680493BEE6029F3B46A0
:1026F0004A46294630460DF088FC0028C0F2418148
:102700000444B94662E629462520B0470028C0F2B5
:1027100038810134D8460DF13E0A4FF000099BE0A4
:10272000DDF81090BAF1000F07DB5146484612F071
:1027300020FA09EB000AD8468EE04846FEF7D5FCA1
:10274000F7E7049B8DF82830D8460DF1290A0DF1E2
:10275000280981E018F0080F05D118F0100804D0FE
:102760004FF0200801E04FF02B08049A059B002B46
:1027700002DB0492059308E0524263EB43030492A8
:1027800005934FF02D0800E0D8460DF13E0300936D
:102790000AAB06AADDE90401FFF7A0FD8146BAF104
:1027A000000FC0F288800DF13E03A3EB09039DF8F2
:1027B00018206FF386128DF818209A457ED9AAEB5F
:1027C000030307930DF13E0A46E0049828B9D84662
:1027D000DFF8B4A1AAF105093EE00DF13E03009334
:1027E0000AAB06AA0021FFF779FD81469DF81A3051
:1027F00043F010038DF81A3078238DF81B30D8463B
:10280000CDE7049A9DF81930C3F3C303072B06D80C
:10281000DFE803F0040B0D0F1115191B1460D846E7
:102820000DF13E0A4FF0000916E01470F7E714802E
:10283000F5E71460F3E7E31714605360EFE7E3177D
:1028400014605360EBE71460E9E71460E7E7D846EB
:102850000DF13E0A4FF00009B9F1000F00F08D8034
:10286000AAEB0902B8F1000F00D001329DF81A104E
:1028700011F0100F25D00232079B134411F0400FC6
:1028800001D0089A1344002F31DDFF1A9DF818304B
:1028900013F0040F2BD113F0400F17D0B8F1000F35
:1028A00017D029464046B04700286ADB0134D84695
:1028B0004FF0300B0FE00DF13E0ACDE70DF13E0A6F
:1028C000CAE711F0080FD7D00132D5E74FF0200B3F
:1028D00001E04FF0300B3B465F1E002B07DD294621
:1028E0005846B04700284CDB01343B46F4E7B8F1CA
:1028F000000F05D029464046B047002841DB01348F
:102900009DF81A30C3F30012C3F3C003134305D07C
:1029100029463020B047002833DB01349DF81A30B7
:1029200013F0100F06D029469DF81B00B047002871
:1029300027DB0134079B03F1FF38002B07DD294615
:102940003020B04700281CDB01344346F3E75346F0
:102950004A46294630460DF058FB002811DB044456
:10296000002F07DD29462020B047002809DB01346D
:10297000013FF5E7DDF8089028E5DDF8089025E54A
:10298000204611B0BDE8F08F0D5902004FF0200233
:10299000EFF3118382F31288BFF36F8F044A012192
:1029A000C2F8401583F31188BFF36F8F0020704782
:1029B0000090034030B108B58001034B43F00103A0
:1029C000984708BD704700BF10540200054B98425D
:1029D00004D3054B984203D3002070470020704772
:1029E00001207047D84F02000877020008B5064B57
:1029F000186018B1054B1B68092B00DC08BD0448A2
:102A00000AF038FCFAE700BF58CE002028CE00209C
:102A100068C7002008B502480AF02CFC08BD00BFBA
:102A200068C7002008B503480DF036FB003818BF12
:102A3000012008BD34CE002030B589B000220F49F6
:102A40000F4811F041FF0F4D00220023CDE906236E
:102A5000002404940E2303930294019400940A4BDF
:102A60004FF440720949284611F052FB08492846A4
:102A70000AF014FA204609B030BD00BF152A010043
:102A8000B8C70020F0C70020DD300100B0D600201C
:102A90001459020030B5034600208446044601E084
:102AA00084F0010413F8012BB2B18C4514D2252A0D
:102AB000F6D0002CF6D0094D12F805E01EF0030FF9
:102AC000F0D0732A03D00CF1010C0024EAE70122B4
:102AD00002FA0CF21043F6E730BD00BFB3750200F6
:102AE000164BD3E8EF2F511CC3E8E01F0028F8D1A4
:102AF0001ABB70B5002409E0114B03EB06135B68A9
:102B000004221968284600F027FB01340D4B0C4ABB
:102B10009B1AB4EB231F0FDA2646094D05EB04156B
:102B20002B7B002BF1D02301054AD3589B69002B46
:102B3000E2D028469847DFE770BD704730CE0020CE
:102B40006C5302007C53020038B108B5044A10608F
:102B5000084600F081FD002008BD6FF015007047A9
:102B600004C5002008B500230A4A13700A4A1360FE
:102B70004FF400410948FFF7E7FF00F011FB084858
:102B80000DF07CFA042334220649074811F063FA59
:102B900008BD00BF6BD500202CCE0020B100020084
:102BA00034CE0020F00301203CCE002010B54FF0C1
:102BB0002003EFF3118483F31288BFF36F8F04486F
:102BC0000DF06CFA84F31188BFF36F8F10BD00BF56
:102BD00034CE002008B5054B1B781BB1034B0122F6
:102BE0001A7008BD02480AF045FBF7E76AD50020D5
:102BF00068C70020084BD3E8EF2F0132C3E8E12F6C
:102C00000029F8D1054BD3E8EF2F013AC3E8E12FB3
:102C10000029F8D1704700BF2CCE002028CE00201C
:102C2000044B00200246D3E8EF0FC3E8E12F002950
:102C3000F9D170472CCE002038B5FFF7F1FF0546DB
:102C4000002400E001340B4B0B4A9B1AB4EB231F0A
:102C50000FDA094800EB041043685B79002BF1D0D0
:102C60002301054AD3581B69002BEBD0294698470E
:102C7000E8E738BD7C5302006C530200034B186830
:102C80000028D4BF00200120704700BF2CCE0020B8
:102C900070B582B00446FFF799FEF0B90022002318
:102CA00001A90F480AF0A6F808B10E4C15E0019BE7
:102CB0000122D3E8EF1FC3E8E02F0028F9D1019DDE
:102CC0002E1D2D222146304611F040FF7E2385F82F
:102CD0003130002385F832303446204602B070BDD2
:102CE0003CCE00201C59020038B1074A904206D35E
:102CF000D032904205D3002070470020704700205A
:102D000070470120704700BFF0030120037A13F0E1
:102D1000010F00D070472DE9F04383B006460DF057
:102D20005EFA074630460DF045FA01463846FFF791
:102D3000B1FE054604E0012202FA04F425EA040586
:102D40006DB3B5FA85F4C4F11F04214630460DF089
:102D500034FA8146FFF73AFE0028ECD14846FFF7E7
:102D6000C3FF0028E7D10F4B9945E4D07189C1F327
:102D7000891100F0E1F902460B4B0C495B1ADB08A4
:102D8000012161F302086FF3C50863F38F18ADF8F2
:102D900000803B462146064800F0A8F8CBE703B088
:102DA000BDE8F0831C5902000C530200EC520200F3
:102DB00038590200F8B5064619BB144B1B780BB105
:102DC000002403E0FFF7A2FFFAE70134104B114A99
:102DD0009B1AB4EB231F14DA0E4D05EB04156B6838
:102DE0005B79002BF1D0314628460DF05FF90028C1
:102DF000EBD02701074BDB595B68314628469847E3
:102E0000E3E730460DF0EDF9F8BD00BF6BD50020CB
:102E10007C5302006C53020010B504460F4B1B7824
:102E200003B9B0B1FFF7C2FE034660B13CB90C4A2A
:102E3000D2E8EF1F0139C2E8E01F0028F8D121468F
:102E40001846FFF7B7FF14B9FFF718FF10B9FFF7DF
:102E5000E9FD10BDFFF7F0FEF9E700BF6AD50020DD
:102E600028CE002010B582B01B4BD3E8EF2F511CA9
:102E7000C3E8E01F0028F8D1184B1B783BB9184B6A
:102E80001B6803B19AB10A2A1CD002B010BD4FF0E2
:102E90002003EFF3118483F31288BFF36F8F0020B8
:102EA000FFF7BAFF84F31188BFF36F8FEDE70022BD
:102EB0000023CDE900234FF40042002309480BF022
:102EC0008DF9E2E7002BE0D0064811F009FD064835
:102ED0000AF0D0F9D9E700BF28CE00206BD500203A
:102EE00058CE0020B8C7002068C700202DE9F04167
:102EF00080460F4616461D4600F076F9044618B186
:102F000001234360002303814CB1C4F81080607A30
:102F1000032363F3071060726761A661E561C4B1C2
:102F2000BDF8183063810C4B1B689847E0604FF088
:102F30002003EFF3118583F31288BFF36F8F2146CF
:102F400006480DF09FF885F31188BFF36F8FFFF7E8
:102F500089FFBDE8F08100BF04C5002034CE002009
:102F600070B505460E4600F03FF9044618B101233E
:102F700043600023038104B12561B4B166810B4B2A
:102F80001B689847E0604FF02003EFF3118583F34F
:102F90001288BFF36F8F214605480DF073F885F353
:102FA0001188BFF36F8FFFF75DFF70BD04C5002070
:102FB00034CE0020F8B507460E46154600F014F949
:102FC000044618B1012343600023038134B1276113
:102FD000637A012262F3071363726661B4B165819B
:102FE0000B4B1B689847E0604FF02003EFF311850F
:102FF00083F31288BFF36F8F214606480DF042F825
:1030000085F31188BFF36F8FFFF72CFFF8BD00BF6A
:1030100004C5002034CE00202DE9F04180460F4643
:1030200016461D4600F0E0F8044618B1012343603F
:103030000023038144B1C4F81080607A022363F353
:10304000071060726761A661B4B165810B4B1B68A4
:103050009847E0604FF02003EFF3118583F3128867
:10306000BFF36F8F214606480DF00CF885F31188E9
:10307000BFF36F8FFFF7F6FEBDE8F08104C50020B7
:1030800034CE0020124B1B7803B1704710B5FFF708
:1030900027FD002400E001340E4B0F4A9B1AB4EBCD
:1030A000231F0CDA0C4800EB041043685B79002BFB
:1030B000F1D02301084AD3585B699847EBE7002019
:1030C000FFF7AAFE0028FAD1014B01221A7010BDA9
:1030D0006BD500207C5302006C53020008B5FFF74B
:1030E000FFFC0AF06BFEFFF781FC0020FFF794FE67
:1030F0000028FAD14FF0FF324FF0FF3301480AF0B9
:10310000E1F8F2E768C7002000B583B00438019009
:10311000D0E8EF3F5A1EC0E8E12F0029F8D1012B7B
:1031200002D003B05DF804FB01A9024810F0A1FF32
:10313000F7E700BF3CCE0020054B064A9B1AB1EBD7
:10314000D30F02D252F8310070470020704700BF01
:103150006C530200EC52020008B5074BC31A1B1156
:1031600001334268137143681960436801225A7140
:10317000FFF730FD08BD00BF6C53020010B582B0F0
:10318000019005E01C6801A9044810F072FF019449
:10319000019B002BF6D102B010BD00BF5CCE002019
:1031A00008B520231A460249024810F054FF08BD12
:1031B000C00401205CCE002010B582B00023019332
:1031C0000120FFF729FE0446FFF714FD002200232B
:1031D00001A9044809F00EFE08B1002CF0D10198B5
:1031E00002B010BD5CCE002000B583B00023019377
:1031F0000CF064FF50B10022002301A9074809F038
:10320000F9FD30B9019803B05DF804FB00220023FA
:10321000F3E7FFF7D1FF0190F4E700BF5CCE002099
:10322000F0B583B0019004460CF0C4FF237A13F08C
:10323000010F01D1064650BB019B1A7A12F0020F12
:1032400028D101A9154810F014FF03B0F0BD019872
:103250000CF0C5FF3146FFF71DFC074670B9EBE7E0
:103260000134B442E8D2214601980CF0A6FF05468D
:10327000FFF73AFD0028F3D0002FE8D027FA04F337
:1032800013F0010FECD02846FFF73EFFE8E70027D8
:103290003C46E6E75869FFF771FFD2E75CCE0020B5
:1032A0000EB400B582B0014603AB53F8042B019372
:1032B0000348FFF783F802B05DF804EB03B07047F2
:1032C0002B05020030B585B011F0440F05D01A4B24
:1032D0001C6834B9002005B030BD1849FFF7E0FF85
:1032E000F9E7174B1968B2FBF1F1B1FBF4FC154A91
:1032F000A2FB0C32D20A4FF4616E0EFB12CE124BBF
:10330000A3FB0E535B0904FB1C114FF47A7C0CFBEE
:1033100001F1B1FBF4F505FB14110CFB01F1B1FB5C
:10332000F4F102910195C3EB0311AEEB8101009121
:103330000649FFF7B5FFCEE778CE00207C590200A2
:103340007CCE0020C5B3A291898888888859020064
:1033500061B108B52AB1064A52F8232012B9054ACC
:1033600000E0044A0449FFF79BFF08BD704700BF17
:10337000FC590200A4590200B865020011F0100FB8
:103380000BD108B511F0200F03D00449FFF788FFD7
:1033900008BD0349FFF784FFFAE77047BC700200DD
:1033A000487202002DE9F04105460F461646984640
:1033B0000699FFF7E3FF0024444505DA244928462F
:1033C000FFF76EFF0134F7E7002409E020492846A3
:1033D000FFF766FF0BE01F492846FFF761FF013446
:1033E0000F2C0CDC002C02DD14F0070FEED0B442E1
:1033F000F1D23A5D18492846FFF752FFEFE7174927
:103400002846FFF74DFF002409E011492846FFF741
:1034100047FF0BE012492846FFF742FF01340F2C0B
:1034200013DC002C02DD14F0070FEED0B44207D2FB
:103430003A5D0C4BD35C13F0970FEBD12E22E9E7EA
:1034400003492846FFF72CFFE8E7BDE8F08100BFFD
:10345000D0590200B4590200AC590200B859020018
:10346000BC590200B37502002DE9F04180461646B2
:103470001D46BDF9187059B90024002F1CDB86B118
:103480000123079A934013F0100F18D10D4E09E055
:103490000D4B079A53F822200C49FFF701FF044611
:1034A000EBE7084E39462846FFF746FE024631460E
:1034B0004046FFF7F5FE04442046BDE8F081044E87
:1034C000F0E700BFC0590200385A0200CC59020090
:1034D000C85902002DE9F04F85B005460C46164646
:1034E00003939DF8388001F0020B01F0010AC1F34B
:1034F000C0090CF0E1FDE8B1024613492846FFF788
:10350000CFFE0746BBF1000F16D142465146284672
:103510000CF08BFECDF80480BDF9403000939DF88F
:103520003C30324649462846FFF79EFF384405B0F6
:10353000BDE8F08F0027E5E7039A21462846FFF70C
:10354000C1FE0744E1E700BFD45902002DE9F04372
:1035500089B007460E46914698460CF040FE02465A
:103560000F493046FFF79CFE002409E0CDF80080AB
:103570004B460DEB05013046FFF714FF039D2C442D
:1035800010250395234603AA0DEB050138460CF0E0
:1035900037FE039A002AE9D109B0BDE8F08300BFE5
:1035A000B8650200F0B583B006460C4600273D46DC
:1035B0000DE0A268134413F8017C0A2F14BF002702
:1035C000012720460CF0A4FF019B1D4473B1E36862
:1035D00001932B4601AAA16830460CF011FE6368E6
:1035E000019A1A60019B002BEBD0E2E70FB903B000
:1035F000F0BD02492046FFF753FEF8E7D859020014
:1036000070B582B00446056842F20F738B4228BF42
:103610000B460E4A052168460CF088F90646636899
:103620005B680B220A4928460CF0F2FD63685B6870
:103630003246694628460CF0EBFD63685B681B2246
:10364000044928460CF0E4FD02B070BD7455020038
:103650002C5A0200105A0200074B01221A6004E0A3
:103660004008054A13685B001360044B9842F7D882
:10367000034B1860704700BF7CCE002040420F0013
:1036800078CE002070B506460D46002406E0054BB6
:103690001868315D83685B6898470134AC42F6D3A3
:1036A000284670BD94CE0020014B024A1A60704734
:1036B00094CE0020A850020008B5034B01221A70D6
:1036C00002480CF025FF08BD6CD50020885A020086
:1036D00008B50248FFF794FF08BD00BF885A0200F2
:1036E00010B50C4608460CF05CFD0F22214603483D
:1036F0000CF033FF20460CF074FD10BD885A020018
:10370000F8B505460E4617460E4C0F4B9C4211D29B
:103710002368AB4200D05BB963683A46314628461D
:10372000984728B1A3683A46314628469847F8BDDD
:103730000C34EAE70DF013F96A2303604FF0FF3011
:10374000F5E700BFE0520200EC5202002DE9F04F15
:103750009BB0044604900D460591174698461046C6
:10376000194611F085F8069007910BAB0A934FF0BC
:103770000009CA46CDF80C9009E00027B8463D463E
:10378000089809F0F9FC002D35DB083435466E1E2B
:10379000002D37D020680028F7DB08AA09A9FEF71A
:1037A000BBFA83460028F0D008984FF0FF324FF064
:1037B000FF3309F057FC1AAB01930AAB0093234681
:1037C0004FF48172594609980CF00FFF054610F12D
:1037D000780FD2D010F1120FD2D1BAF1000F03D06E
:1037E000002501230393CBE7DDF824A0D94600256B
:1037F00001230393C4E70DF0B2F86D4205604FF06A
:10380000FF3AB6E0039B53B957EA080340D0B8F13A
:10381000FF3F08BFB7F1FF3F29D1AB468FE0B8F1BA
:10382000FF3F08BFB7F1FF3F1ED0FA0E7B01DB1B45
:1038300062F10002920042EA93729B00DB1942F1AE
:103840000002D20042EA5372C3F3103343EA424308
:103850000193059B0093049B4FF4827249465046A6
:103860000CF0C3FE824684E04FF0FF33F0E70AF02D
:1038700049FC069B1F1A079B63EB0108012F78F197
:10388000000301DBAB465AE00027B846AB4656E0E2
:10389000AB4654E00BAB0A93049C059BDA46039DB0
:1038A00005E02023E3800AF1010A083433465E1E56
:1038B000002B36D00023E38020689842F5DB08AA6D
:1038C00009A9FEF729FA81460028EAD008984FF0A6
:1038D000FF324FF0FF3309F0C5FB0AAB00932346DC
:1038E00040F20312494609980CF07FFE8146089881
:1038F00009F042FC19F10B0F11D0B9F1000F06D1FC
:10390000B4F90630002BD0D00AF1010ACDE70DF052
:1039100026F8C9F1000303604FF0FF3A29E00125C2
:10392000C3E75DB1BAF1000F23DC57EA080320D0EA
:10393000B8F1FF3F08BFB7F1FF3F1ED1CDB10BA8D3
:103940000A9B191A8910134B03FB01F13A464346AF
:103950000AF094FE044600289CD010F10B0F99D079
:1039600010F1040F96D00CF0FAFF644204604FF09F
:10397000FF3A50461BB0BDE8F08F0AF0C3FB069B30
:103980001F1A079B63EB0108012F78F10003D5DABA
:10399000EFE700BFCDCCCCCC014B1860704700BF27
:1039A0009CCE002010B5024C24682468A04710BDAE
:1039B0009CCE002008B5024B1B685B68984708BD89
:1039C0009CCE002070B584B0294B1D7D05F01F03EF
:1039D00001229A406909274B03EB8103D043D3E8C6
:1039E000EF1F01EA0004C3E8E64F002EF7D10A42B8
:1039F0003BD005EB45039A001F4B134493E80700A7
:103A000004AB03E907001D4B63B10CF02CFB4FF036
:103A10002003EFF3118683F31288BFF36F8F184BE7
:103A20001C6808E0002383F31188BFF36F8FEEE773
:103A30000CB1246864B15CB1A268002AF8D00C4BC8
:103A40001B7D03EB430399000B4B585C9047EFE75A
:103A500086F31188BFF36F8F074805EB4505AA0071
:103A60008118002383504B608B6004B070BD00BF91
:103A70000CD50020A8CE0020ACCE002067000200AC
:103A8000A0CE0020F0B589B004464D4B1D7D05F059
:103A90001F03012199406A094A4B03EB8203D3E8D3
:103AA000EF2F42EA0100C3E8E60F002EF7D11142E2
:103AB00016D005EB4503444A12F82330002B7CD086
:103AC000B4F1FF3F1CD109F031FE4FF02003EFF3BA
:103AD000118683F31288BFF36F8F3C4B1C682FE075
:103AE00005EB4506384B03EB86066F462246294612
:103AF00038460CF083FE97E8070086E80700D8E711
:103B000005EB450302EB83039868410CC003304B7F
:103B1000C018304A4FF0000341F10001FDF770F981
:103B20000121201A10F06BFECDE7254B1B7D03EB26
:103B30004303254911F8230090470CB1246824B1B0
:103B40001CB16268002AF0D1F7E786F31188BFF351
:103B50006F8F05F01F03012199406B091E4A02EB8C
:103B60008303D3E8EF2F0A43C3E8E02F0028F8D1FE
:103B700005EB4503144A02EB830393E8070008AB07
:103B800003E90700154B0BB10CF05AFAFFF71AFFC7
:103B900009F0D6FF012005F01F02012393406D09B3
:103BA000084A02EB8505DB43D5E8EF2F1A40C5E84C
:103BB000E12F0029F8D109B0F0BD0020EBE700BFEC
:103BC0000CD50020B8CE0020ACCE0020A0CE002026
:103BD0003F420F0040420F00A8CE002041000200EB
:103BE00008B509F0A3FD02480CF063FE08BD00BF54
:103BF000BCCE002008B503480CF05CFE09F0A0FF25
:103C000008BD00BFBCCE0020014910220A607047E9
:103C100010ED00E072B6404080F31188BFF36F8F63
:103C2000BFF34F8F30BF62B6BFF36F8F704700BFD7
:103C300072B6494081F3118820BF80F3118862B6C3
:103C4000704700BF70B582B004461F4D1F4BED1A80
:103C5000ED0801264FF0000366F302036FF3C5037E
:103C600065F38F13ADF80030836842680168184827
:103C7000FFF73CF94FF0000366F302036FF3C5034F
:103C800065F38F13ADF8003063692269E16811486C
:103C9000FFF72CF94FF0000266F302026FF3C50242
:103CA00065F38F12E1690C48FFF784F94FF00002C9
:103CB00066F302026FF3C50265F38F12A16907482C
:103CC000FFF778F902B070BD4C530200EC520200CD
:103CD0009C5A0200CC5A0200FC5A02000C5B020003
:103CE00040B2002807DB00F01F0240090123934087
:103CF000014A42F82030704700E100E04209054BDC
:103D000053F8222000F01F00012303FA00F01040B6
:103D1000704700BF00E100E0013140B2002808DB3D
:103D20004901C9B200F1604000F5614080F800131C
:103D3000704700F00F004901C9B2014B1954704798
:103D400014ED00E008B572B6054B9B690BB962B67D
:103D500008BD034B00229A6110F0FCF9F7E700BFA1
:103D60000CD5002030BFFFF7FDBF00BF08B50F4BDB
:103D70000F4A22F07F029A60BFF34F8FBFF36F8F1D
:103D8000D3F8882022F47002C3F88820EFF314835C
:103D900023F0040383F31488BFF36F8F08F0B6FF9A
:103DA0000AF05EF800F0A2FC08F0BCFF00ED00E0B5
:103DB000000001000A4A9368C3F8AC000949096889
:103DC000C3F8B01008494B6843F080534B600023A0
:103DD00083F31188BFF36F8F9368D3F8B0007047F7
:103DE0000CD500206073020000ED00E014498A68E1
:103DF0004FF030001044EFF3098C80E8F01F2020D2
:103E000080F31288BFF36F8F0E4F4FF00066CA69C0
:103E10008A603E60D2F8AC000023C2F8AC3080F378
:103E2000118802F1300090E8F01F8CF3098802F14C
:103E3000000004B50CF011FDBDE80440704700001F
:103E40000CD5002004ED00E01EF0040F0CBFEFF3D2
:103E50000880EFF30980816911F8021C0229FFD064
:103E600001B50CF0E8FC01BD10B4A2F120040E492C
:103E700042F8081C21F0010142F8081C42F8203CDD
:103E8000019B42F81C3C029B42F8183C039B42F801
:103E9000143C4FF0807342F8043C04650023C0F8E2
:103EA000AC3010BC704700BFF3FB0100094B9860B9
:103EB000D0F89C3083F30B88104681F309880021E9
:103EC00063B681F31188BFF36F8F002200230BF0DC
:103ED00090FE00BF0CD5002001B572B60B4A906968
:103EE00000281EBF0021916110F034F962B6EFF393
:103EF0000580A0F110004FEAC0000549014409C93E
:103F00009847BDE801400349084700000CD5002050
:103F1000D8500200193F0100044B9968D8698842C3
:103F200003D003494FF080520A6070470CD500203F
:103F300004ED00E010B55A4B5A4A9B1ADB084FF0CB
:103F40000001012262F302016FF3C50163F38F11D7
:103F50005548FFF705F8554B9B6A13F0007F26D1B3
:103F6000524B9B6A13F0807F32D1504B9C6A14F401
:103F700080143ED14D4B9B6A13F4002F4BD14B4B19
:103F80009B6A13F4802F57D1484B9B6A13F4003F70
:103F900063D1464B9B6A13F4803F6FD1434A936AC7
:103FA0006FEA03436FEA13439362204610BD3C4B14
:103FB0003C4A9B1ADB084FF00001012262F3020128
:103FC0006FF3C50163F38F113948FEF7C9FFC7E7E7
:103FD000334B344A9B1ADB084FF00001012262F395
:103FE00002016FF3C50163F38F113248FEF7B8FF8A
:103FF000BBE72B4B2B4A9B1ADB084FF00001012239
:1040000062F302016FF3C50163F38F112A48FEF7D3
:10401000A7FF0224AEE7224B224A9B1ADB084FF08F
:104020000001012262F302016FF3C50163F38F11F6
:104030002248FEF795FFA2E7194B1A4A9B1ADB08A4
:104040004FF00001012262F302016FF3C50163F337
:104050008F111B48FEF784FF96E7114B114A9B1AFC
:10406000DB084FF00001012262F302016FF3C5018A
:1040700063F38F111348FEF773FF8AE7084B094A71
:104080009B1ADB084FF00001012262F302016FF37B
:10409000C50163F38F110C48FEF762FF7EE700BF96
:1040A0004C530200EC5202003C5B020000ED00E0C9
:1040B000545B0200685B0200845B0200B05B02009C
:1040C000D05B0200F85B0200145C020008B500221D
:1040D0000A70084B08495B1ADB084FF00001012009
:1040E00060F3020162F3C50163F38F110348FEF729
:1040F00037FF08BD4C530200EC520200405C020046
:1041000070B505460E461446564B574A9B1ADB08B7
:104110004FF00001012262F302016FF3C50163F366
:104120008F115248FEF71CFF514B9B6A13F0100F82
:1041300026D14F4B9B6A13F0080F32D14C4B9B6A30
:1041400013F0020F3ED14A4B9B6A13F0010F67D167
:10415000474B9B6A13F0200F73D1454B9B6A13F0BA
:10416000100F01D1424B9B6A414A936A43F0FF030F
:104170009362012128460CF075FB2070002070BD71
:10418000384B394A9B1ADB084FF00001012262F3D9
:1041900002016FF3C50163F38F113648FEF7E0FEAD
:1041A000C7E7304B304A9B1ADB084FF00001012271
:1041B00062F302016FF3C50163F38F112E48FEF71E
:1041C000CFFEBBE7274B284A9B1ADB084FF00001C4
:1041D000012262F302016FF3C50163F38F112748D7
:1041E000FEF7BEFE224B596B9B6A13F0800FAAD0DC
:1041F0001C4B1D4A9B1ADB084FF00002012060F3A4
:1042000002026FF3C50263F38F121D48FEF7D2FE60
:10421000002E98D0164A936A23F08003936292E7A7
:10422000104B114A9B1ADB084FF00001012262F388
:1042300002016FF3C50163F38F111248FEF790FE80
:1042400086E7084B084A9B1ADB084FF00001012261
:1042500062F302016FF3C50163F38F110A48FEF7A1
:104260007FFE7AE74C530200EC520200645C0200CD
:1042700000ED00E07C5C0200B05C0200C45C020067
:10428000DC5C0200F45C0200145D020070B50546BF
:104290000E4614465E4B5F4A9B1ADB084FF0000146
:1042A000012262F302016FF3C50163F38F115A48D3
:1042B000FEF756FE594B9B6A13F4805F24D1574B8F
:1042C0009B6A13F4006F30D1544B9B6A13F4007F48
:1042D0003CD1524B9B6A13F4806F65D14F4B9B6A64
:1042E00013F4807F71D14D4B9B6A13F4005F7DD135
:1042F0004A4A936A43F47F439362012128460CF0B3
:10430000B1FA2070002070BD414B424A9B1ADB0875
:104310004FF00001012262F302016FF3C50163F364
:104320008F113F48FEF71CFEC9E7394B394A9B1AEB
:10433000DB084FF00001012262F302016FF3C501B7
:1043400063F38F113748FEF70BFEBDE7304B314A60
:104350009B1ADB084FF00001012262F302016FF3A8
:10436000C50163F38F113048FEF7FAFD2B4B996BB3
:104370009B6A13F4004FACD0254B264A9B1ADB08EE
:104380004FF00002012060F302026FF3C50263F3F5
:104390008F122648FEF70EFE002E9AD01F4A936A0F
:1043A00023F40043936294E7194B1A4A9B1ADB08E3
:1043B0004FF00001012262F302016FF3C50163F3C4
:1043C0008F111B48FEF7CCFD88E7114B114A9B1A51
:1043D000DB084FF00001012262F302016FF3C50117
:1043E00063F38F111348FEF7BBFD81E7084B094AC1
:1043F0009B1ADB084FF00001012262F302016FF308
:10440000C50163F38F110C48FEF7AAFD70E700BFEA
:104410004C530200EC520200445D020000ED00E04B
:104420005C5D0200B05C0200705D02008C5D020009
:10443000A45D0200C05D0200145D020070B5054677
:104440000C46464B464A9B1ADB084FF000010122FE
:1044500062F302016FF3C50163F38F114148FEF768
:104460007FFD00232370404BDE6A16F0020609D15F
:104470003D4BDB6A002B17DB3B4BD86A10F08040CA
:1044800024D170BD354B364A9B1ADB084FF0000132
:10449000012262F302016FF3C50163F38F11334808
:1044A000FEF75EFD0020ECE72C4B2D4A9B1ADB0843
:1044B0004FF00001012262F302016FF3C50163F3C3
:1044C0008F112B48FEF74CFD3046DAE7234B244A88
:1044D0009B1ADB084FF00001012262F302016FF327
:1044E000C50163F38F112348FEF73AFDAB6933F83A
:1044F000022C4DF602739A420DD01B4B93F82830D4
:10450000E3B9194B93F82930F3B9174B5B8D9BB284
:1045100003BB3046B5E7114B114A9B1ADB084FF03D
:104520000002012161F302026FF3C50263F38F12EF
:1045300029681148FEF73EFD2868A2E722460121BE
:104540002846FFF7DDFD9CE7224601212846FFF7BC
:104550009DFE96E72846FFF7EDFC92E74C530200DC
:10456000EC520200D85D020000ED00E0F05D0200B8
:10457000145E0200245E0200445E020008B50A4692
:104580000B480C4BC01AC0084FF00003012161F327
:1045900002036FF3C50360F38F130F2A05DC06498E
:1045A000103A0648FEF738FD08BD0549F8E700BF98
:1045B0004C530200EC520200605E0200945E020066
:1045C000785E02002DE9F0438BB0394B5E68C6F38C
:1045D0000806002383F31188BFF36F8F02F07F4337
:1045E000B3F17F4F2CD180468946154612F0010F5A
:1045F00029D112F0400F07D10024274637BB15F010
:10460000080F1AD04C4622E02A4B2B4A9B1ADB0893
:104610004FF00001012262F302016FF3C50163F361
:104620008F112648FEF79CFC15F0040F02D04C4673
:104630000127E3E744460127E0E74446012706E077
:1046400000273C4603E000273C4600E000270DF130
:104650002702314620460CF007F905469DF8273021
:1046600013B10BB0BDE8F0830DF1040C2068616854
:10467000A268E368ACE80F0020696169A269E36998
:10468000ACE80F0047B1C3F308025AB96FEA5323ED
:104690006FEA4323089305E0089B23F4FF7323F09C
:1046A0000103089301A928460CF0B9F8D9E700BF27
:1046B00000ED00E04C530200EC520200A85E020044
:1046C000044B5A6942F010025A615A6942F48062FE
:1046D0005A61704700ED00E0EFF30880EFF30981C5
:1046E00001B57246FFF76EFF01BD00BF002206E074
:1046F00002F00F01094B0B44202119760132402AA8
:104700000ADC53B2002BF3DB03F1604303F5614392
:10471000202183F80013F1E7704700BFFCEC00E0B4
:1047200010F054FC202080F3118808484FF40061F9
:10473000401880F30988EFF314800221084380F3C6
:104740001488BFF36F8FFFF711FB0000F0EF00201C
:10475000BFF34F8F0549CA6802F4E062044B13436C
:10476000CB60BFF34F8F00BFFDE700BF00ED00E05F
:104770000400FA0508B5084B9B68834202D009F093
:1047800033FB08BDEFF30583002BF8D0034A5368D1
:1047900043F080535360F2E70CD5002000ED00E0B9
:1047A00010B584B00A4C23460A4A01210A480CF08D
:1047B000BDF80023019302930393084B0193E41A7D
:1047C0000294012101A80CF0B5F804B010BD00BF9F
:1047D0000000042000C50020D05E0200B8C7002001
:1047E000024B034AC3F8C020704700BF00ED00E051
:1047F000AAFF44000B6823F01F0291F808C00CF0D8
:104800001F031A43CB6823F01F034FEA5C1C43EAE3
:104810004C0343F001030449C1F89800C1F89C20FF
:10482000C1F8A030704700BF00ED00E010B50446AD
:104830000F2803D8FFF7DEFF204610BD094B0A4AB8
:104840009B1ADB084FF00002012161F302026FF3B3
:10485000C50263F38F1201460448FEF7ABFB6FF00D
:104860001500EAE72C530200EC520200DC5E020065
:104870002DE9F04F87B08146009101931446002640
:1048800061E0744B744A9B1ADB084FF0000201216F
:1048900061F302026FF3C50263F38F1231466F4872
:1048A000FEF788FB6FF0150415E06FF015076CE05C
:1048B000684B694A9B1ADB084FF00002012161F343
:1048C00002026FF3C50263F38F1239466448FEF7A4
:1048D00071FB6FF01504204607B0BDE8F08FD84596
:1048E0006FD12946F8B20CF002F82BE05D4BC3F80B
:1048F0009800D3F89C1001F01F0122F01F020A4318
:10490000C3F89C202946E0B20BF0F1FF044610F1F9
:10491000160FE0D0013415E0013B524AC2F898006E
:10492000D2F8A01001F01F0123F01F030B43C2F8BF
:10493000A0302946E0B20BF0DAFF044610F1160F62
:10494000C9D001340136009B9E42C4DA06EB46050D
:104950004FEA850A09EB8505D5F80480B8F1000F08
:10496000F0D0019B23B128460BF0AFFF002888D080
:1049700059F80AB058460BF09EFF074608EB0B00AB
:1049800001380BF098FF87428FD117F1160F8FD0A7
:10499000631EBB428CDB3846324BC3F89870D3F8A9
:1049A0009C1021F01F01C3F89870D3F8A03043F099
:1049B0001F0859F80A306A681A4402F1FF3B99420D
:1049C0008DD0994292D0D845A6D0013B254A0746C2
:1049D000C2F89800D2F8A01001F01F0123F01F03C5
:1049E0000B43C2F8A0302946E0B20BF080FF04462A
:1049F00010F1160F3FF46FAF01301A4BC3F89870E7
:104A0000D3F89C109DF8102061F304028DF810205B
:104A1000D3F8A030C3F34203D2B263F347128DF848
:104A2000102059F80A306A681344029323F01F03D8
:104A3000A8EB0B084344013B23F01F03059302A995
:104A4000C0B2FFF7F3FE044610F1160F3FF443AF78
:104A5000013477E72C530200EC520200045F02009D
:104A6000285F020000ED00E010B5034C012322781E
:104A7000FFF7FEFE207010BD6DD500202DE9F84334
:104A800007468846002403E06FF0150517E001345F
:104A9000A04543DD04EB44039A0007EB83035E6803
:104AA000002EF4D057F8029048460BF004FF05465C
:104AB00006EB090001380BF0FEFE8542E4D104EB61
:104AC00084031A4A42F8235015F1160F27D0184BC9
:104AD0001B78AB4226DD04EB8402144B03EB82020D
:104AE000144BC3F89850C3F89850D3F89C50107BDF
:104AF00065F304001073D3F8A000C0F34200157BE7
:104B000060F347151573D3F89C0020F01F00506028
:104B1000D3F8A03023F01F031361B8E7002528461F
:104B2000BDE8F8836FF01505F9E700BF44CF00201A
:104B30006DD5002000ED00E0044B0522C3F8942061
:104B4000BFF34F8FBFF36F8F704700BF00ED00E0E2
:104B5000BFF35F8F024B0022C3F89420704700BF61
:104B600000ED00E038B50E4B1D68102D15D8FFF78D
:104B7000EFFFFFF735FE002407E0094B596801EB12
:104B800004112046FFF736FE0134A542F5D8054B47
:104B90001D70FFF7D1FF002038BD4FF0FF30FBE75D
:104BA0005C5F02006DD50020014B1860704700BFAC
:104BB00008C500200246084B1968084BC8180A446B
:104BC000C3F1005303F580239A4202D2024B1A60CC
:104BD00070474FF0FF30704758CF0020C0080120C9
:104BE00038B504464FF0FF324FF0FF33204808F04D
:104BF00039FA34B123680C33D3E8AF3F13F0010F17
:104C000032D123689A7EE2B934B33BB35B683BB3DD
:104C10009B683BB3012120469847051E0CDB2368A7
:104C20000C33D3E8EF2F42F00102C3E8E12F002953
:104C3000F7D120460BF0A2FE0D4808F09DFA284659
:104C400038BD0C33D3E8EF2F42F00102C3E8E12F67
:104C50000029F7D10025EFE70025E0E70025DEE792
:104C60000025DCE70025DAE76FF07705E4E700BF11
:104C700040C7002010B54FF0FF324FF0FF330C4813
:104C800008F0F0F90B4C00E004340B4B9C420AD2C4
:104C900023681B689B68002BF6D01B68002BF3D0A1
:104CA00020469847F0E7024808F066FA10BD00BFBA
:104CB00040C7002098C700209CC7002010B50A4CB0
:104CC00003E02046FFF78CFF0434084B9C420AD2D5
:104CD000002CF6D023680C33D3E8AF3FC3F3C003F6
:104CE000002BF1D1EDE710BD98C700209CC7002034
:104CF00010B50446B2F1000E04DB20464FF0090C5B
:104D00000F4B0CE04FF0010EF7E7303200F8012BAB
:104D1000E6460CF1FF3C0B4AA2FB0323DB08BCF187
:104D2000000F08DBB1FBF3F203FB1211E645ECDCEC
:104D3000002AEED0E9E700230370001B10BD00BF7E
:104D400000CA9A3BCDCCCCCC2DE9F04105460C46AF
:104D500090F8607007F0020790F85E30042B0BD0DB
:104D6000384826680536266021460CF0BAF8034616
:104D700020B11846BDE8F0813348F2E7214695F8A6
:104D80005E000CF01CF803460028F2D1D4F8008035
:104D900021460CF014F803460028EAD12146B5F864
:104DA0005C000CF018F803460028E2D1214605F11A
:104DB0002C000CF096F803460028DAD1286CE0B1FC
:104DC00047F00403077AFF0007F018071F437FB27C
:104DD00095F8603003F0010347EA4317FFB221461C
:104DE0000CF07FF803460028C3D1686C10B321464D
:104DF0000CF077F803460028BBD1A86B38B147F018
:104E0000800721460CF06DF803460028B1D1E86B0D
:104E100038B147F0400721460CF063F803460028FC
:104E2000A7D188F800702246314610200CF015F802
:104E300003469EE720460CF038F803460028DCD0F5
:104E400097E700BFA05F0200A85F02004368026806
:104E50009B1A012B07D9054B1B881380036802336B
:104E60004360002070476FF00B0070479C5F0200AA
:104E7000436802689B1A012B07D9054B1B881380D6
:104E8000036802334360002070476FF00B007047E7
:104E9000B05F020008B590F8243003EB8303024AA8
:104EA00052F82330984708BDB45F020010B590F85F
:104EB000243003EB8303034C04EB83035B689847C4
:104EC00010BD00BFB45F020008B590F8243003EBBA
:104ED0008303034A02EB83039B68984708BD00BF26
:104EE000B45F020010B590F824C00CEB8C0C034C9E
:104EF00004EB8C0CDCF80C40A04710BDB45F020042
:104F000000B583B00C4B186858B183681B68042245
:104F10000DEB02019847002809DB019803B05DF80A
:104F200004FB064807F078FD034B1860EDE70DF031
:104F3000DDF80190F1E700BF5CCF0020C85F020000
:104F400000487047B0CF0020034BC01A8010034BBD
:104F500003FB00F0704700BF70CF0020B76DDBB6D9
:104F600038B505460C46FFF7EFFF014640220348DF
:104F70000CF0AFFD01462846A04738BD6050020046
:104F800030B583B005460C46FFF7DEFF01464023EF
:104F900000932346054A06480CF0B5FD011E01DBCF
:104FA00003B030BD2846A047FAE700BF4F1B020000
:104FB0006050020008B510B101280DD008BD0021D5
:104FC00008480CF00FFD836813F0070FF6D100219D
:104FD00004480CF06CFDF1E7012102480CF067FD7C
:104FE000ECE700BF6050020010B54FF02003EFF374
:104FF000118483F31288BFF36F8F134A136843F051
:105000000203136013F0010F08D1002384F3118809
:10501000BFF36F8F93B90CF0A2FD10BD0B4BD3F80B
:105020000C24D3F80C3412F0010F01D10023EDE76A
:10503000FFF786FF0CF028FD0123E7E70021044875
:105040000CF035FDE9E700BFC0CF00200050004064
:105050006050020008B5084BD3E8EF2F22F00201A0
:10506000C3E8E01F0028F7D112F0010F00D008BDFF
:105070000CF07FFDFBE700BFC0CF002000B587B07C
:10508000CDF800D0CDF804D0002302930123039380
:1050900004AB049305936B46064A0CF050FD0028C0
:1050A00005DB4FF480420023684608F00BF907B097
:1050B0005DF804FB871B020070B506460022012143
:1050C0000520FEF729FE0520FEF70AFE114804F030
:1050D00051F8114B984219D10DF0DFFF0024012C3B
:1050E00012D8214630460CF07DFC0546214630465C
:1050F0000CF085FC09490AF003FD002805DB0123BB
:10510000AB601C44E4B2EAE7002070BD6FF004001D
:10511000FBE700BFB54F01000000AD0B306002009F
:1051200070B50546012806D1324BD3F81C3403F084
:105130000303022B3CD00EF0D4FF20B92E4B1B787A
:1051400093B1002300E001231C467BB14FF0200304
:10515000EFF3118683F31288BFF36F8F94B9254B59
:105160000222C3F808230DE00123EDE70026F5E74E
:10517000FCB13046FEF75CFD1E4BD3F81835DBB2B0
:10518000012B1BD01B4AD2F8183403F00303D2F8CA
:10519000182412F4803F26D10022002AE8D0022BE6
:1051A00001D0012DE4D104B386F31188BFF36F8FD2
:1051B00070BD2120002108F0D5FDDDE70D4BD3F8AF
:1051C0000431002BDED00B4B0022C3F80421D3F8AE
:1051D00004210222C3F81825084A2021C2F88011B0
:1051E00001229A60CEE70122D7E7024B0222C3F8E0
:1051F0000423DDE700500040AAD6002000E100E0D3
:1052000010B504460E4B0121D3E8EF2FC3E8E01F91
:105210000028F9D11AB1631E012B0DD910BD094820
:105220000CF0EDFB084900234B608B60CB60012341
:105230008B600AF082FCEEE72046FFF771FFEDE796
:10524000C4CF00206050020060CF002010B504469B
:105250000A2807D0074B1868E1B283685B68984753
:10526000204610BD034B186883685B680D21984782
:10527000F0E700BFC8CF002010B5044C2046FFF770
:1052800093FC2046FCF7B2FD10BD00BF4D5201005B
:1052900008B50948094B18600EF040FE28B10023FC
:1052A00033B9FFF7E9FF002008BD6FF01203F7E7FD
:1052B0006FF01200F8E700BFA8500200C8CF00202E
:1052C0001F4B03401F4A934232D016D8062B2BD0D7
:1052D00006D9B3F5801F0DD101230B700020704754
:1052E000FBB1022B03D104230B70002070476FF039
:1052F000150070476FF015007047134A93421BD09A
:10530000B3F5A00F03D103230B7000207047B3F552
:10531000800F03D102230B70002070476FF015003F
:10532000704700200870704706230B7000207047FC
:1053300007230B700020704705230B700020704777
:105340000600F000060010000200400008B9024804
:1053500070470020704700BF78500200F0B585B05C
:105360000E46194643681B7B06F01F0545EA4315A8
:10537000B2F5005F22D00746144600230293039340
:1053800010460CF031FC8DF808007B689968F140FC
:1053900011F0010F02D1B4F5A03F14D0002302AAEE
:1053A0001946284604F0B0F9184B98422AD1012139
:1053B000284604F077FB002005B0F0BD284604F035
:1053C000C9FB0020F8E705F01F038033104A52F8AC
:1053D000233013F0010FE1D10DF10701284604F04D
:1053E00005FB0C4B984203D00DF107030393D5E75F
:1053F0000DF1070004F04EFB044B9842F4D06FF01F
:105400000B00D9E76FF00400D6E700BF0000AD0B3A
:10541000002584400400AD0B30B583B004460DF187
:10542000070104F0E3FA0546204604F0BDFB0B4BF0
:1054300098420FD19D4205D0084B984207D10020D9
:1054400003B030BD9DF8070004F01CFBF4E76FF0DB
:105450000400F5E76FF00400F2E700BF0000AD0BB9
:105460002DE9F04387B0D0F8048098F80C3001F0B3
:105470001F0545EA4315002A43D00C46174600266F
:10548000039604960DF11701204604F0AFFA814609
:10549000334603AA3146284604F036F92F4B98428A
:1054A00059D1994535D017F4007F41D00DF1030152
:1054B0003846FFF705FF064638BB9DF803308DF8E8
:1054C000043017F4807F0CBF012300238DF80530D2
:1054D00038460CF05DFB8DF8060017F4006F1DD008
:1054E000D8F80430012101FA04F49C60002201A9DB
:1054F000284604F0BDF9194B984206D06FF0150606
:1055000003E02846FFF788FF0646304607B0BDE8AF
:10551000F0839DF8170004F0B5FAC4E717F4806F24
:10552000E4D0D8F80420012303FA04F4D460DDE7C2
:1055300038460CF02DFB8DF8080000231A4602A90E
:10554000284604F0E1F8054B984201D10026DCE73B
:105550006FF01506D9E76FF01506D6E70000AD0B22
:1055600008B504F085FA08B1002008BD04F056FA29
:10557000084B98420AD10021074804F031FA002272
:1055800005213120FEF7C8FB0020EEE76FF0040094
:10559000EBE700BF0000AD0B871C02004368002949
:1055A00053D1DA68B2F1FF3F0DD002F01F020121A2
:1055B00001FA02F23B498A60DA6802F01F02803287
:1055C000032041F822001A69B2F1FF3F0AD0197F87
:1055D000002936D0032102F01F02890080323148B1
:1055E00040F822105A69B2F1FF3F0DD002F01F02BD
:1055F000012101FA02F22B498A605A6902F01F0266
:105600008032032041F822009A69B2F1FF3F09D0AD
:10561000597FC1B1032102F01F0289008032214865
:1056200040F822101A68D8681969C2F80C05C2F847
:1056300014151A6859699B69C2F80815C2F8103523
:1056400070470021C7E70021E5E7DA68B2F1FF3FC4
:1056500006D002F01F0280321249022041F82200D7
:105660001A69B2F1FF3F06D002F01F0280320D49E5
:10567000022041F822005A69B2F1FF3F06D002F041
:105680001F0280320749022041F822009A69B2F1D4
:10569000FF3FC7D002F01F0280320249022041F8CA
:1056A0002200BFE70025844043681A68B1F5164F11
:1056B0006FD03AD8B1F5165F6ED00AD9B1F5E14F87
:1056C00075D024D947F6122399422BD14FF4000309
:1056D00013E0B1F5966F61D007D9B1F5166F63D0BD
:1056E000B1F5965F10D13C4B07E0B1F5967F58D0ED
:1056F000B1F5167F05D14FF41C33C2F824350020D4
:1057000070476FF0150070476FF015007047B1F5E6
:10571000615F4ED0B1F5964F01D1304BEDE76FF0A0
:10572000150070476FF015007047B1F5613F42D02A
:1057300009D9B1F5612F46D01FD9294B994248D1DB
:105740004FF08053D9E7B1F5963F37D005D9B1F581
:10575000E13F0FD14FF0EB73CFE74DF6C0239942F5
:105760002ED0B1F5614F02D14FF46B03C5E76FF056
:10577000150070476FF0150070471A4B994225D0FD
:10578000B1F5E12F02D14FF0E863B6E76FF01500F5
:1057900070474FF41D03B0E7134BAEE74FF49E2361
:1057A000ABE74FF4A033A8E74FF41D23A5E70F4B59
:1057B000A3E70F4BA1E74FF06C739EE70D4B9CE7FF
:1057C0004FF4650399E74FF0706396E74FF08063FD
:1057D00093E76FF01500704700B0130000A04E0073
:1057E00040420F0090D003000050270000C0750019
:1057F00000F03A0000903A012DE9F04105460F46CD
:10580000D0F810800EF06DFC20B9164B1B7843B118
:10581000002300E0012353B928460CF04FFB064655
:1058200013E00123F7E784F31188BFF36F8F4FF084
:105830002003EFF3118483F31288BFF36F8F2646A2
:1058400028460CF0ECFA0028EDD0414601F8107F14
:10585000012228460CF0FDFA86F31188BFF36F8F02
:10586000BDE8F081AAD6002038B505460C4601F106
:10587000120003F06DFD124B98420ED1A37C43F051
:105880000043C5F8A031C5F88C30A27C01239340B9
:105890000C4AC2F80435002038BD0B4B0B4A9B1A4A
:1058A000DB084FF00001012262F302016FF3C50132
:1058B00063F38F110648FDF753FB6FF00400EBE72D
:1058C0000000AD0B0070014064530200EC52020076
:1058D0007860020021F07F4100F5A870014B43F889
:1058E000201070470050014000F5A870014B53F89C
:1058F00020007047005001404FF480338340024A3B
:10590000C2F84433704700BF005001404FF4803369
:105910008340024AC2F84833704700BF005001403C
:10592000014BD3F8040570470050014010B5012326
:1059300083406FEA030C0C4AD2E8EF1F01EA0C0E19
:10594000C2E8E4EF002CF7D14FF4803202FA00F005
:10595000064AC2F80803BFF35F8FBFF36F8F0B4295
:1059600014BF0120002010BDDCCF002000500140FA
:1059700070B504460CF058FB05464FF48033A34045
:10598000154AD2F80423134205D1002628460CF00C
:1059900054FB304670BD0123A340DB430F4AD2E8DD
:1059A000EF1F01EA0300C2E8E60F002EF7D159B954
:1059B00004F150039B009BB203F1804303F5A8332D
:1059C0001B6813B1012300E001231E46002BDDD02C
:1059D00020460CF01AFBD9E700500140D8CF002038
:1059E00001B97047012383400E4AD2E8EF1F1943E3
:1059F000C2E8EC1FBCF1000FF7D14FF480338340B5
:105A0000094AC2F80433094BD3E8AF3F23FA00F048
:105A100010F0010FE5D0064B4FF40012C3F800213F
:105A2000DFE700BFDCCF002000500140D8CF0020CE
:105A300000E100E02DE9F843074614461E461046F3
:105A400019460CF0EEFA0546154B1A68A01A1C60B0
:105A50005E60A5F50013B3F5400F09D3002408F0EC
:105A6000EFFA3846FFF740FFA8420ED0BDE8F883B2
:105A70000C4B1B681A0A1B0615EB030842F10009C0
:105A8000094BC3E900890124E9E71CB13846FFF757
:105A900033FFEBE74FF400013846FFF71BFFF5E754
:105AA000C0C80020E0CF0020A8C8002038B50D4BAA
:105AB0001C68250A2406BFF35F8FFFF731FF0346FA
:105AC000001945F10001B3F5801F0AD2064BD3E956
