:10000000A8250020FD1D0000D77C0000D11D0000A8
:10001000D11D0000D11D0000D11D0000D11D000028
:10002000000000000000000000000000C9170000F0
:10003000D11D00000000000071170000A12A00007F
:10004000491800004918000049180000491800002C
:10005000491800004918000049180000491800001C
:10006000491800004918000049180000491800000C
:1000700049180000491800004918000049180000FC
:1000800049180000491800004918000049180000EC
:1000900049180000491800004918000049180000DC
:1000A00049180000491800004918000049180000CC
:1000B00049180000491800004918000049180000BC
:1000C00049180000491800004918000049180000AC
:1000D000491800004918000049180000491800009C
:1000E000491800004918000049180000491800008C
:1000F000491800004918000049180000491800007C
:10010000491800004918000049180000491800006B
:10011000491800004918000049180000491800005B
:10012000491800004918000049180000491800004B
:10013000491800004918000049180000491800003B
:10014000491800000000000000000000000000004E
:10015000000000000000000000000000000000009F
:10016000000000000000000000000000000000008F
:10017000000000000000000000000000000000007F
:10018000000000000000000000000000000000006F
:10019000000000000000000000000000000000005F
:1001A000000000000000000000000000000000004F
:1001B000000000000000000000000000000000003F
:1001C000000000000000000000000000000000002F
:1001D000000000000000000000000000000000001F
:1001E000000000000000000000000000000000000F
:1001F00000000000000000000000000000000000FF
:10020000DEE61E284CBBCE8F025B00003C000000E7
:1002100000000100010000000000000000000000DC
:10022000FFFF02910000000000000000000000003D
:0C023000000000000000000000000000C2
:10023C0053B94AB9002908BF00281CBF4FF0FF3141
:10024C004FF0FF3000F00CB8ADF1080C6DE904CEA6
:10025C0000F024F8DDF804E0DDE9022304B0704777
:10026C00704700BF2DE9E04F2746A046A146A246A5
:10027C00A346A446A2B02DEC000A84F300882546C0
:10028C002646A447EFF3148515F0080F18BFB0EEFF
:10029C00400A3DEC000A22B0BDE8E08F2DE9F04F9A
:1002AC0007468C460846099E15463C461946002BC7
:1002BC0040F0C5808242B2FA82F746D94FB1C7F1FD
:1002CC00200E00FA07F3BD4024FA0EFEBC404EEAA5
:1002DC00030C4FEA15481FFA85FE220CBCFBF8F9FB
:1002EC0008FB19C309FB0EFA42EA03439A4528D9C5
:1002FC00EB1809F1FF3004D29A4502D9A9F102009A
:10030C002B44A3EB0A03A4B2B3FBF8F208FB1233A1
:10031C0002FB0EFE44EA0344A64514D92C1902F143
:10032C00FF3303D2A64501D9931E2C44A4EB0E0433
:10033C0043EA00401EB1FC40002334607360BDE80A
:10034C00F08F4846DDE71346F0E702B9FFDE87BBC6
:10035C00831A01214FEA154EAAB2200CB3FBFEFC06
:10036C000EFB1C330CFB02F840EA0343984562D9A0
:10037C00EB180CF1FF3004D2984502D9ACF1020015
:10038C002B44A3EB0803A4B2B3FBFEFC0EFB1C3303
:10039C000CFB02F244EA0344A2424ED92C190CF194
:1003AC00FF3304D2A24202D9ACF102032C44A41AAA
:1003BC00BEE7C7F1200CBD4000FA07F320FA0CF899
:1003CC004FEA154E24FA0CFCBC404CEA0302ABB2CB
:1003DC00B8FBFEFC110C0EFB1C800CFB03F941EA74
:1003EC000040814523D928180CF1FF3104D28145F6
:1003FC0002D9ACF102012844A0EB090092B2B0FB87
:10040C00FEFC0EFB1C000CFB03F842EA0043984573
:10041C000FD9EB180CF1FF3204D2984502D9ACF18C
:10042C0002022B44A3EB080342EA014192E7614626
:10043C00E2E76246F6E76046A3E76346B7E7834226
:10044C0005D90EB1C6E900700021084677E7B3FA6A
:10045C0083F181B9834201D3BA420AD8BC1A60EB4A
:10046C00030301209C46002E67D0C6E9004C0021F6
:10047C0065E70846F7E7C1F1200C8B4002FA01F55D
:10048C0022FA0CF420FA0CFB27FA0CF28F401C43D6
:10049C0000FA01F34FEA144913431FFA84FE1A0CB5
:1004AC00BBFBF9F809FB18BB08FB0EFA42EA0B423E
:1004BC0092453ED9A21808F1FF3004D2924502D9D8
:1004CC00A8F102002244A2EB0A029BB2B2FBF9F89B
:1004DC0009FB182208FB0EFE43EA024296452AD974
:1004EC00A21808F1FF3304D2964502D9A8F10203F1
:1004FC00224443EA0040A2EB0E02A0FB05939A4271
:10050C00CE46984602D306D14F4504D20138B9EBFA
:10051C00050E63EB040886B1B7EB0E0362EB08071C
:10052C0007FA0CFCCB40CF404CEA0303C6E900377A
:10053C009DE74046C7E74346DBE73146FFE6000050
:10054C000B6801330B60014B1B681847000000203F
:10055C00014B1860704700BF0000002007B50B4628
:10056C00002102460191034801A900F005F803B0EF
:10057C005DF804FB4D0500002DE9F04F8B469246CB
:10058C001C46002591B002909AF8000008B9284644
:10059C005FE325280AF1010707D05946029B9847CB
:1005AC000028C0F25683013512E2182200210AA855
:1005BC0007F0E8FB9AF80130252B78D00022104682
:1005CC00964694461646394617F8013B2B2B00F0FD
:1005DC009D8000F29480202B00F09B80232B00F058
:1005EC009B802EB19DF8306046F004068DF830608B
:1005FC00BCF1000F05D09DF8306046F008068DF870
:10060C003060BEF1000F05D09DF8306046F010064A
:10061C008DF8306028B19DF8300040F020008DF846
:10062C0030002AB19DF8302042F040028DF8302085
:10063C009DF8302002F04400442803D16FF3861259
:10064C008DF830209DF830202A2B42F080028DF856
:10065C0030207BD19DF831204B1C42F001028DF8EB
:10066C0031201A782E2A0CBF012100219DF831204F
:10067C0061F341028DF8312074D15A782A2A6AD05C
:10068C0000210A260133184610F8012BA2F130077D
:10069C00092F40F28E809DF830200E91C2F340005D
:1006AC0040EAD17161F341028DF830205AE00AF131
:1006BC0002078DF833309DF83130D90740F149816C
:1006CC0054F8049BB9F1000F07DA9DF83020C9F1FA
:1006DC00000942F004028DF830205A0740F14281A3
:1006EC0054F8048BB8F1000F80F241819DF8313041
:1006FC006FF341038DF831304FF0FF3837E12D2B7C
:10070C000CD0302B7FF46DAF01225CE74FF0010C65
:10071C0059E74FF0010E56E7012054E7012652E746
:10072C0033460CFB0202303A1E4616F8010BA0F1C0
:10073C003007092FF4D9994293D09DF830100D92BF
:10074C00D20F62F341018DF830108AE70B4600227C
:10075C004FF00A0CE8E79DF83120023342F0040216
:10076C008DF831201F4617F8012B6C2A41D025D863
:10077C00682A2BD06A2A46D04C2A4CD01F4617F830
:10078C00012B9DF83130782A8DF8332000F2D98076
:10079C00572A4DD8412A03D0453A022A00F2D1807B
:1007AC0004229DF8323062F302038DF832300123BB
:1007BC009EE006FB01210346303964E7742A26D0FB
:1007CC007A2ADBD106229DF831300DE05A78682A5E
:1007DC009DF8312006D1012161F3C6028DF831203C
:1007EC009F1CCCE71346022262F3C6038DF831300E
:1007FC00C5E75A786C2A9DF8312001D10421EBE72A
:10080C0013460322F0E705229DF83130ECE707226E
:10081C009DF83130E8E7BDF8303023F4F04323F095
:10082C00020343F4804343F00203ADF83030A6E7F3
:10083C00A2F15801202900F2848001A050F821F087
:10084C00110900004F0900004F0900004F0900007A
:10085C004F0900004F0900004F0900004F0900002C
:10086C004F090000AD0700004F09000011090000FE
:10087C00D1080000AD070000AD070000AD07000077
:10088C004F090000D10800004F0900004F0900007B
:10089C004F0900004F090000190900001109000060
:1008AC00350900004F0900004F0900003509000010
:1008BC004F090000110900004F0900004F0900000A
:1008CC001109000001209DF8321003F0780360F349
:1008DC000201402B8DF8321002BF9DF8301041F010
:1008EC0001018DF83010632A31D1003B18BF012370
:1008FC009DF83020C2F340010B4363F341028DF8A5
:10090C003020D8E602209DF83210DEE703219DF856
:10091C00322003F07803A3F1400061F3020243425A
:10092C008DF832204341E3E703219DF8322013F088
:10093C00780F61F3020214BF012300238DF83220DB
:10094C00D6E79DF8303043F001038DF830300023AA
:10095C00CEE79DF93020002AACBF4FF0FF39DDF80F
:10096C003490BAE69B077FF5C7AEDDF838800023DC
:10097C00CDE90D339DF832309DF8311003F00703AB
:10098C00012BC1F3C30138D1CB1E042B22D8DFE8D5
:10099C0003F003090921210054F8043BDA17CDE9CF
:1009AC000A3206E0073424F00704F4E80223CDE908
:1009BC000A239DF8303013F0030656D03B465246BE
:1009CC005946029807F00BF90028C0F24281054401
:1009DC00BA46D9E554F8043B01294FEAE372CDE954
:1009EC000A3205D19DF828300A9300230B93E0E7D7
:1009FC000229DED1BDF92830D0E7022B23D1CB1E42
:100A0C00042B13D8DFE803F0030A0A1212000023A8
:100A1C002268201D0A920B930446CAE7E01D20F0C1
:100A2C000700F0E80223CDE90A23F5E754F8043B6C
:100A3C0001290A934FF000030B93D3D00229B8D1AC
:100A4C00BDF82830D0E7042B09D1E31D23F00703B0
:100A5C0003F10804D3E90023CDE90A23A9E7032B0A
:100A6C0004BF54F8043B0A93A3E79DF8330078289D
:100A7C00AED8622822D825283FF48FAD5828A7D1AC
:100A8C00DDE90A010DF1260300930CAA04AB07F073
:100A9C0060F88246B8F1000F0DF126000CDB9DF8D2
:100AAC003020A0EB0A036FF3861298458DF83020A6
:100ABC0002D9A8EB03030D9380463DE0633815285B
:100ACC0086D801A252F820F0550B0000B90B00009B
:100ADC00DD090000DD090000DD090000DD09000072
:100AEC00B90B0000DD090000DD090000DD09000084
:100AFC00DD090000130C0000E10B0000E50B000009
:100B0C00DD090000DD0900002D0B0000DD090000EF
:100B1C00E10B0000DD090000DD090000E10B000025
:100B2C00B8F1000FDDF828A00ADB4146504607F06B
:100B3C00ECF800260AEB0008BAF1000F0CD147E7DD
:100B4C00504607F0DBF8F4E700260A9B0DF1100A7B
:100B5C008DF810300DF11108A8EB0A0306B1013322
:100B6C009DF83220D00668D5023352060D9948BF45
:100B7C000E9A0B4448BF9B18B9F1000F76DD9DF817
:100B8C003020A9EB0309C2F38003039353076DD400
:100B9C00500661D546B159463046029B984700280D
:100BAC0057DB039B01351E46302356E01E070FD43E
:100BBC0013F0100618BF2026DDE90A23002BBFF620
:100BCC005FAF524263EB43032D26CDE90A2357E76F
:100BDC002B26F1E7002653E70A9840B30DF12603C4
:100BEC000093002104AB0CAA06F0B3FFBDF8323021
:100BFC00824603F0EF0343F4F04343F01003002666
:100C0C00ADF8323046E70A9B07293FF6E1AEDFE844
:100C1C0001F00C04060C08080C0C1D70D8E61D80A5
:100C2C00D6E6EA17C3E90052D2E61D60D0E6DFF83B
:100C3C00C8A006460AF105088EE7110748BF013324
:100C4C0093E7184603935946029B98470028039B49
:100C5C0004DA11B0BDE8F08F20234D444A46002A37
:100C6C00A5EB090109F1FF39EBDC0D4636B159460C
:100C7C003046029B98470028EBDB01359DF832305B
:100C8C00D90601D41A0706D559463020029B98473D
:100C9C000028DEDB01359DF83230DB0607D55946DE
:100CAC009DF83300029B98470028D2DB01350D9E3E
:100CBC002E44731B002B16DC4346524659460298B1
:100CCC0006F08DFF0028C4DB0544A944A9EB0503FD
:100CDC00002B7FF77DAE59462020029B98470028B9
:100CEC00B7DB0135F2E759463020029B98470028C4
:100CFC00AFDB0135DDE700BFF8880000044608B51E
:100D0C004FF02002EFF3118382F31288BFF36F8F41
:100D1C0007F0CCF9204601F09BF8034806F0EFFEF3
:100D2C0000F066FCFCE700BFFE8800004FF02002DC
:100D3C00EFF3118382F31288BFF36F8F0121044A02
:100D4C00C2F8401583F31188BFF36F8F00207047F2
:100D5C000090035020B1034B800143F0010318476E
:100D6C00704700BF3085000084B004AB03E9070076
:100D7C009DF80430062B07D10122044BC3F8002543
:100D8C00BFF34F8F20BFFDE704B070470040005009
:100D9C002DE9F84305464FF02003EFF3118683F35A
:100DAC001288BFF36F8F1D4802F090FC40B91C49AC
:100DBC001C48812206F0A3FE8121194806F025FF6C
:100DCC00164802F09FFC184B1C689CB14FF00C09A4
:100DDC00164FDFF85C80D4E90132002D08BF1346B2
:100DEC002BB198F8142009FB02F2B85C98472468E0
:100DFC00002CF0D1094802F077FC40B908490948A9
:100E0C00AC2206F07CFEAC21054806F0FEFE86F313
:100E1C001188BFF36F8FBDE8F88300BF3802002044
:100E2C002B890000518900003C0200204802002060
:100E3C00C4090020012200F01F039A40084B40090E
:100E4C0003EB8000D0E8EF3F43EA0201C0E8EC1F5F
:100E5C00BCF1000FF6D11A4214BF012000207047DC
:100E6C0054020020012230B51A4B85B01C7D04F0D1
:100E7C001F039A40D043184B610903EB8103D3E85D
:100E8C00EF1F01EA0005C3E8EC5FBCF1000FF6D1DF
:100E9C00114217D00C22114D01AB02FB045207CAB0
:100EAC0083E807000E4A7AB193E8070006F0B5FE16
:100EBC000020FFF76DFF0C235C4300232A192B51F4
:100ECC00C2E9013305B030BD82F31188BFF36F8FD7
:100EDC00EEE700BFC40900204402002048020020B5
:100EEC00277C00002DE9F041324B80461D7D88B0F7
:100EFC002846FFF79FFF304C60B90C266F4606FB67
:100F0C00054642462946384606F09FFE97E80700FC
:100F1C0086E807000C236B43E05CE2186E0905F0D1
:100F2C001F07B8B3B8F1FF3F10D04FF4004C0021AD
:100F3C00D2F808E021480023EEFB0C01204AFFF711
:100F4C0077F90121A8EB000003F0DCFE02F0B4FEFF
:100F5C000120FFF71DFF01221A4BBA4003EB860359
:100F6C00D3E8EF1F1143C3E8E01F0028F8D10C238E
:100F7C0003FB054405AB94E8070083E80700124A1D
:100F8C001AB193E80700FFF7EFFEFFF76BFF03F0D2
:100F9C00B5FA01200123BB40DB430C4A02EB860669
:100FAC00D6E8EF2F1A40C6E8E12F0029F8D108B097
:100FBC00BDE8F081C4090020480200203F420F0028
:100FCC0040420F0044020020750D00005402002026
:100FDC00F7B500281C4614BF4FF400534FF40043E0
:100FEC008A420BD294222149214806F088FD942193
:100FFC001E4803B0BDE8F04006F007BE33D00D46E6
:10100C001C4E68B305F5E0770135AA4246F8274037
:10101C00F7D802FB03F0013A4B430090164806F058
:10102C006EFD164B14F0100F1549164808BF1946E3
:10103C0006F065FD7221144806F061FD7721124817
:10104C0006F05DFD7821104806F059FD6C210E4824
:10105C0006F055FD0D4803B0BDE8F04006F04FBD5D
:10106C0005F5C077D0E703B0F0BD00BF8189000063
:10107C005189000000300050A289000075890000E1
:10108C006C890000538B0000BC890000C7950000E0
:10109C0008B543B2002B0CDB012200F01F018A4083
:1010AC005B091049203341F82320BFF34F8FBFF366
:1010BC006F8F830003F1A04303F540533128D3F81D
:1010CC00002806D0002A07DA02F00302023A012AAD
:1010DC0002D8054AC3F80028012106F0C7FD0020FC
:1010EC0008BD00BF00E100E0000100801FB54FF417
:1010FC0080344FF480311D4806F001FD21681C48F6
:10110C0006F0FDFC61681B4806F0F9FC102200217A
:10111C00684606F037FE236868460093029400F098
:10112C00F1FE012000F020FF002000F009FF00205C
:10113C0000F02EFF0121002000F048FF00F03CFFE2
:10114C0064680D4806F0DBFC0820FFF7A1FF24F0D3
:10115C000104BFF34F8FBFF36F8F64086400204608
:10116C00214622462346FFF77DF800BFBF890000C9
:10117C00D6890000EB890000098A00002DE9F843AC
:10118C00524806F0BCFC002140F21713084602221C
:10119C00FFF71EFF4E4D40F20713202202210020C4
:1011AC00FFF716FF4B4806F0AAFCC5F30E044A4B9A
:1011BC00C4F500449C4208D248494948822206F0B2
:1011CC009EFC8221454806F020FDB4FA84F4454E7D
:1011DC00C4F11B04D6F80035E4B2DA05C5F3C43506
:1011EC000AD541493E484FF4BD7206F088FC4FF4D5
:1011FC00BD713D4806F009FDD6F80435DB050AD56E
:10120C003949374840F27B1206F079FC40F27B11E9
:10121C00354806F0FAFC334B3448C3F80055C3F894
:10122C000445D3F80015D3F80425520106F067FCE9
:10123C00284806F064FC00F06FF8014610B12C4809
:10124C0006F05DFC00242B4806F059FC40F2171305
:10125C00042200210120FFF7BBFE224D40F20713B0
:10126C00202204210120FFF7B3FE1A4806F047FCA8
:10127C00C5F88044204806F042FC204FC5F8C04415
:10128C00DFF87C801F4DDFF880906E792146002EB0
:10129C0014BF3B46434648462A6806F030FC66B904
:1012AC001A48013406F02BFC202C05F10805ECD172
:1012BC000848BDE8F84306F022BC2879FFF7E8FEA1
:1012CC0008B11348EDE71348EBE700BF3F8A000075
:1012DC00E0FF0000C795000020000000818900009D
:1012EC005189000000300050638A0000958A00008C
:1012FC00DB8A00000B8B00002D8B0000348A000071
:10130C007989000038850000498B0000568B00005D
:10131C005D8B0000658B000000220248114603F033
:10132C006FBE00BF5802002070B50C46154606462D
:10133C0050B96FF01500BDE87040714672467346A7
:10134C00F4468EF3008C7447002AF2D006F0D1FCE0
:10135C000128EED00B4B9C420AD92A192D339A4204
:10136C0009D82A462146304606F001FD0020E2E766
:10137C00054B9C4203D9054B2A199A42F1D94FF0DF
:10138C00FF30D8E7FF01FF002F01FF003801FF00FD
:10139C0070B506460D46144606F0ABFC01280DD080
:1013AC00204606F0A6FC012808D023462A463146E2
:1013BC00084803F059FE2368AB4201D06FF01500CA
:1013CC00BDE87040714672467346F4468EF3008C4D
:1013DC00744700BF580200202DE9F04F81460D469E
:1013EC0085B081B306F085FC01282CD1284606F087
:1013FC0080FC012827D04FF00008DFF85CB0DFF844
:10140C005CA001AF5BF8046B9AE807004E4487E8D8
:10141C0007000C223946304606F080FC044600B921
:10142C00A6B908F10108B8F1050FEBD16FF00D0466
:10143C00204605B0BDE8F04F714672467346F4463F
:10144C008EF3008C74476FF01504F1E73C223146A3
:10145C00284606F08CFCEBE738860000008500007F
:10146C00014803F0C5BD00BF4C86000010B5044612
:10147C0018B90D4B0D485B689847616808290DD069
:10148C0031F004030AD011F0020108D021460848BB
:10149C0001F0FAFF002323600023636010BD1422C7
:1014AC00206806F06FFCF7E75C0000209A8C0000C7
:1014BC001404002008B5E8B14368042B0CD10122B8
:1014CC000368D3E8EF1F002903D1C3E8E02F0028FD
:1014DC00F7D10BD1002008BD53B100684FF0FF329B
:1014EC004FF0FF3302F03EF90028F3D00348F2E747
:1014FC000348F0E76FF4E040EDE700BFE98FFFFF32
:10150C00EA8FFFFF08B5B0B14368042B0DD1002260
:10151C000368D3E8EF1F012903D1C3E8E02F0028AB
:10152C00F7D1074808BF104608BD3BB1006802F070
:10153C00EBF90020F8E76FF4E040F5E70148F3E73A
:10154C00E98FFFFFEA8FFFFF10B5044618B9164B61
:10155C0016485B6898476368042B23D0082B21D06E
:10156C00CBB92368BBB94FF0FF324FF0FF332146A4
:10157C000F4801F02FFF08B923681BB90A4B0D481F
:10158C005B68984714220021206806F0FBFB636817
:10159C0043F002036360206806F0EBFD636843F0E0
:1015AC000103636010BD00BF5C0000209A8C00003A
:1015BC0014040020C08C000008B5064940231422F6
:1015CC00054806F0A3FDBDE808400449044803F0B3
:1015DC00C3BD00BF34040020140400206486000046
:1015EC0054860000014910220A60704710ED00E09B
:1015FC0072B6404080F31188BFF36F8FBFF34F8FEB
:10160C0030BF62B6BFF36F8F704700BF37B505466A
:10161C000C46C9B18B6810480093D1E900234521D1
:10162C0006F006FB636945210093D4E903230B48BC
:10163C0006F0FEFA4521E269094806F0F9FA45215F
:10164C00A269084806F0F4FA2146284603B0BDE822
:10165C00304001F067BD00BFED8C0000218D000013
:10166C00558D0000698D000043B2002B08DB012270
:10167C0000F01F0002FA00F0024A5B0942F8230056
:10168C00704700BF00E100E0054B420953F82220EF
:10169C00012300F01F0003FA00F01040704700BF58
:1016AC0000E100E038B54C1C072C054608D90D4963
:1016BC000D48592206F023FA59210A4806F0A5FADA
:1016CC006BB2002BACBF03F16043084B4FEA4414E0
:1016DC00E4B2ABBF03F5614305F00F0583F800439B
:1016EC005C5538BD9C8D00005189000014ED00E064
:1016FC0030BFFFF7FDBF00BF0B4A08B50B4B22F004
:10170C007F029A60BFF34F8FBFF36F8FD3F888209F
:10171C0022F47002C3F8882001F0A4FD03F06CF9E8
:10172C0000F05AFB01F0A8FD0000000000ED00E005
:10173C00094A0A49936809685867996708494B68C8
:10174C0043F080534B60002383F31188BFF36F8FFA
:10175C009368986F704700BFC40900205887000039
:10176C0000ED00E013498A684FF030001044EFF3AD
:10177C00098C80E8F01F202080F31288BFF36F8F54
:10178C000D4F4FF00066CA698A603E60506F0023AF
:10179C00536780F3118802F1300090E8F01F8CF34E
:1017AC00098802F1000004B506F096FABDE8044081
:1017BC0070470000C409002004ED00E01EF0040F87
:1017CC000CBFEFF30880EFF30980816911F8021C5C
:1017DC000229FFD001B506F041FA01BD42F8203CC8
:1017EC00009B0B4942F81C3C019B21F0010142F883
:1017FC00183C029B42F8081C42F8143C4FF08073D2
:10180C0042F8043C0023203A02654367704700BF4E
:10181C004B7B0000084B9860436E83F30B8810469B
:10182C0081F30988002163B681F31188BFF36F8FB0
:10183C000022002306F083F9C409002001B572B61A
:10184C000B4A906900281EBF0021916106F082FCB2
:10185C0062B6EFF30580A0F110004FEAC000054915
:10186C00014409C99847BDE80140034908470000F5
:10187C00C40900209C82000089180000044B996860
:10188C00D869884203D003494FF080520A607047F0
:10189C00C409002004ED00E010B5244C2448452177
:1018AC0006F0C6F9D4F8E820D4F8E430580603D58D
:1018BC004521204806F0BCF9D4F8E430D9070BD503
:1018CC0045211D4806F0B4F9184AD2F8E43043F02B
:1018DC00FF03C2F8E43010BDD4F8E4309A0702D507
:1018EC0045211648EEE7D4F8E4305B0702D54521D4
:1018FC001348E7E7D4F8E430180702D5452111481E
:10190C00E0E7D4F8E430D90602D545210E48D9E7F2
:10191C00D4F8E4309A0602D545210C48D2E7D4F825
:10192C00E4301B06D0D545210948CBE700ED00E09B
:10193C00D28D0000F08D0000058E0000208E00007E
:10194C00438E0000638E0000858E00009F8E000089
:10195C00BE8E000038B5214C4521214806F068F9AF
:10196C00A36A9D0103D545211E4806F061F9A36ABF
:10197C00DC0103D545211C4806F05AF9174DAC6A19
:10198C0014F4801404D04521184806F051F90224AF
:10199C00AB6A180303D54521154806F049F90F4DDC
:1019AC00AB6A590303D54521124806F041F9AB6ADD
:1019BC009A0303D54521104806F03AF9074DAB6A56
:1019CC00DB0303D545210D4806F032F9AB6A2046FE
:1019DC006FEA03436FEA1343AB6238BD00ED00E0DE
:1019EC00D68E0000F38E00000B8F00002A8F0000B3
:1019FC00598F00007C8F0000A68F0000C58F00005F
:101A0C0070B5234C06460D462248452106F010F9C8
:101A1C00A36AD90403D545211F4806F009F9A36A26
:101A2C001A0503D545211D4806F002F9184CA36A86
:101A3C009B0510D51A48452106F0FAF8A26BA36A4B
:101A4C00180408D54521174806F0F2F81EB1A36A10
:101A5C0023F40043A3620E4CA36A590503D5452118
:101A6C00114806F0E5F8A36ADA050BD545210F48B5
:101A7C0006F0DEF80020064A936A43F47F43936233
:101A8C00287070BDA36A9B04F4D545210848EFE784
:101A9C0000ED00E0F58F0000109000002690000093
:101AAC003E9000005C900000769000009690000044
:101ABC00B390000070B52B4C06460D462A484521C4
:101ACC0006F0B6F8A36AD80603D54521274806F0D8
:101ADC00AFF8A36A190703D54521254806F0A8F8E5
:101AEC00204CA36A9A0710D54521224806F0A0F88D
:101AFC00626BA36A1B0608D545211F4806F098F8AF
:101B0C001EB1A36A23F08003A362164CA36ADE07FE
:101B1C0003D54521194806F08BF8A36A980603D51E
:101B2C004521174806F084F80E4B9A6AD10602D468
:101B3C009A6A92070DD59B6ADB060AD511491248A1
:101B4C0040F24F1205F0DBFF40F24F110D4806F04A
:101B5C005CF80020034A936A43F0FF0393622870F9
:101B6C0070BD00BF00ED00E0E790000002910000A6
:101B7C00269000003A9100005791000072910000ED
:101B8C00B390000096910000518900002DE9F041BE
:101B9C00784B0D465C6800268AB0C4F3080786F3C0
:101BAC001188BFF36F8F02F07F43B3F17F4F1ED1CB
:101BBC0012F0010339D012F0400302F0080840F093
:101BCC00D180520754BF05461E462A686A4B58BF3F
:101BDC0001261344012B98BF2A6C4521674806F057
:101BEC0027F8B8F1000F1DD0EFF389855DB940F2ED
:101BFC00F2326349634805F082FF40F2F2316048EB
:101C0C0006F003F800254FF00008FB1E8DF8078046
:101C1C00092B00F29580DFE803F00A8488668C9328
:101C2C0093939390EFF38885E0E71E46DFE7514FDF
:101C3C004521554805F0FCFFFC6A8DF8078014F02F
:101C4C00020404D04521514805F0F2FF73E0FB6A11
:101C5C00002B1DDA45214E4805F0EAFF9DF80730B0
:101C6C009BB92022294602A806F081F8099B002E78
:101C7C0073D0C3F3080222B96FEA53236FEA4323EC
:101C8C000993204602A9FFF7C1FC0AB0BDE8F08118
:101C9C00FB6A5B003CD545213E4805F0C9FFAB69AA
:101CAC0033F8022C4DF602739A4206D145212A686C
:101CBC00394805F0BDFF2C68D0E797F8283033B1D0
:101CCC0001200DF10701FFF7F5FE0446C6E797F872
:101CDC0029302BB101200DF10701FFF791FEF4E73C
:101CEC007B8D9BB213B1FFF735FEEEE7D7F8E430EE
:101CFC0013B1FFF7D1FDB1E7214940F2C3222148CE
:101D0C0005F0FDFE40F2C3211D4805F07EFFA5E75E
:101D1C001B4940F2C7221B4805F0F1FE40F2C721D7
:101D2C00F2E700200DF10701CDE700200DF10701CE
:101D3C00D3E7FFF7B1FD002490E74521174883E76F
:101D4C00174914F4F87F174A174808BF0A46A7F139
:101D5C001003452105F06CFFEDE723F4FF7323F02E
:101D6C0001038DE7B8F1000F7FF440AF0546012663
:101D7C003CE700BF00ED00E0A6ED0501FE91000080
:101D8C009691000051890000229200003E920000C2
:101D9C0064920000779200009B920000BC920000BD
:101DAC00D0910000E5910000E5920000044B5A69C7
:101DBC0042F010025A615A6942F480625A617047CB
:101DCC0000ED00E0EFF30880EFF3098101B57246F6
:101DDC00FFF7DCFE01BD00BF002320210348C21821
:101DEC000133412B82F80013F9D1704700E100E078
:101DFC00002080F31488BFF36F8F002080F30A88D3
:101E0C0080F30B8806F0E2F900200E490860BFF35E
:101E1C004F8F0D4880F3088800F03EF8202080F3A7
:101E2C0011880A484FF40061401880F30988EFF3D9
:101E3C0014800221084380F31488BFF36F8FFFF7DF
:101E4C005BFC000094ED00E0A8250020E8260020B3
:101E5C00BFF34F8F0549064BCA6802F4E062134387
:101E6C00CB60BFF34F8F00BFFDE700BF00ED00E07C
:101E7C000400FA05002318460649D1F89020C2F355
:101E8C000722934200D17047C1F89830C1F8A000E6
:101E9C000133F6E700ED00E010B572B6002484F3D0
:101EAC001388FFF7E7FF23464FF0FF300B4A03F18F
:101EBC0020010133102B42F82100F8D100234FF000
:101ECC00FF3003F160010133102B42F82100F8D1EF
:101EDC0062B6BFF34F8FBFF36F8F10BD00E100E010
:101EEC00064B9B68834207D1EFF3058323B1044A69
:101EFC00536843F08053536002F0EABCC4090020DD
:101F0C0000ED00E082680D4B9A60036883F38888CB
:101F1C00436883F38988027B02F00101EFF3948319
:101F2C0023F00303920748BF43F0020309B143F0C7
:101F3C00010383F39488BFF36F8F704700ED02E0C9
:101F4C00084AD36848B123F400531B041B0C43F01C
:101F5C00BF6343F40033D36070479BB243F4005328
:101F6C00F5E700BF00ED00E0084AD36840B19BB232
:101F7C0043F4804343F0BF6343F40033D3607047B2
:101F8C0023F480431B041B0CF4E700BF00ED00E0BE
:101F9C00084AD36840B19BB243F0080343F0BF63D7
:101FAC0043F40033D360704723F008031B041B0C6D
:101FBC00F4E700BF00ED00E0034AD2F88C3043F4A4
:101FCC004063C2F88C30704700ED00E00A4BD3F848
:101FDC00D02020B142F00102C3F8D020704722F08B
:101FEC000102C3F8D020D3F8D02011B142F0020284
:101FFC00F2E722F00202EFE700ED00E01FB5094C1A
:10200C00094A23460121094800F02EF900230393C5
:10201C00074B0121E41A01A80193029400F040F946
:10202C0004B010BD00800020000000207886000065
:10203C003001002010B50B680C7A23F01F0204F05D
:10204C001F031A43CB68640923F01F03054943EAB5
:10205C00440343F00103C1F89800C1F89C20C1F877
:10206C00A03010BD00ED00E030B54B680C6885B0B9
:10207C000A894D890094013B24F01F04234402F08B
:10208C001F0242EA451223F01F030F2804468DF865
:10209C000820039309D902464521064805F0C8FDDE
:1020AC006FF01504204605B030BD6946FFF7C2FF3E
:1020BC00F8E700BF019300002DE9F04F8946144664
:1020CC0006464FF00008594D85B0C84527DAD6F8BA
:1020DC0004A0BAF1000F45D0BAF11F0F18D91AF0AD
:1020EC001F0F15D1D6F800B01BF01F0F10D158469A
:1020FC0005F0F6FD07460AEB0B00013805F0F0FD84
:10210C00874210D06FF015073A464521484802E047
:10211C0042464521474805F08BFD6FF015042046DB
:10212C0005B0BDE8F08F17F1160FEDD0631EBB4262
:10213C00EADBC5F89870D5F89C10C5F89870D5F8FE
:10214C00A03021F01F0143F01F0BD6E900321A44D6
:10215C00994202F1FF3A1DD1D34507D13146F8B26D
:10216C00FFF782FF08F101080C36AEE73146C5F8DF
:10217C009870D5F89C3022F01F0203F01F031A430D
:10218C00C5F89C20E0B2FFF76FFF10F1160FC4D01A
:10219C00441CE7E7013BD345E0B223F01F03C5F82D
:1021AC00987008D1D5F8A020314602F01F021343D5
:1021BC00C5F8A030E7E7D5F8A01001F01F010B43DC
:1021CC00C5F8A0303146FFF74FFF10F1160FA4D021
:1021DC00C5F89870D5F89C209DF808300BF1FF3BA2
:1021EC0062F304038DF80830D5F8A0309DF8082070
:1021FC005B0863F34712D6E900310B44009323F0DC
:10220C001F0301305B44A3EB0A03C0B223F01F038E
:10221C000F288DF80820039303D902464521064860
:10222C0079E76946FFF706FFB2E700BF00ED00E073
:10223C00549300002C930000019300000522044BE2
:10224C00C3F89420BFF34F8FBFF36F8F704700BF5D
:10225C0000ED00E0BFF35F8F0022024BC3F8942027
:10226C00704700BF00ED00E010B50A4C2278FFF774
:10227C0023FF207016300CD10749084840F2111288
:10228C0005F03DFCBDE8104040F21111024805F08C
:10229C00BCBC10BDE41300207C93000051890000ED
:1022AC002DE9F74F304D8A4606464FF00008AB46F5
:1022BC002E4FD04502DB03B0BDE8F08FD6F804906A
:1022CC00B9F1000F4AD031680846019105F008FDBC
:1022DC000199044609EB0100013805F001FD844227
:1022EC004FF01402224B13D06FF0150302FB08F8C9
:1022FC004BF8083040F221121E491F4805F0FFFB35
:10230C0040F221111B4803B0BDE8F04F05F07DBC35
:10231C0014F1160F2C60EDD01978A142EADD02FB06
:10232C0008B0C7F89840C7F89840D7F89C4000F11F
:10233C000801007B64F304000871D7F8A0000C7945
:10234C00400860F347140C71D7F89C1021F01F0162
:10235C006960D7F8A01021F01F01296108F101086C
:10236C0014350C36A5E700BF3409002000ED00E061
:10237C00E41300207C9300005189000038B51D4DFA
:10238C002C68102C0DD94FF4A4721B491B4805F076
:10239C00B6FB19484FF4A47105F037FC4FF0FF3031
:1023AC0038BD0020FFF756FF154B164AC3F8C02066
:1023BC00844217D1144B1C70FFF740FF104BD3F81D
:1023CC009030C3F30723102B0AD00B490B484FF462
:1023DC00D67205F094FB4FF4D671074805F015FC46
:1023EC000020DDE7696801EB0011FFF723FE0130E7
:1023FC00DEE700BF848600007C930000518900005A
:10240C0000ED00E0AAFF4400E4130020014B18602B
:10241C00704700BF2400002037B540230C460A4902
:10242C000093411A491105462346084A084805F00D
:10243C00C8FC011E05DA2846234603B0BDE830402F
:10244C00184703B030BD00BF480900203D7E000096
:10245C003C82000038B5CCB2012C054608D908499D
:10246C000848792205F04BFB7921054805F0CDFB96
:10247C000C23296904FB0314A06C00F0070038BD81
:10248C00C293000051890000F8B5CCB2012C05466E
:10249C00174606690AD91849184840F24D1205F03A
:1024AC002EFB40F24D11144805F0AFFB4FF020030A
:1024BC00EFF3118183F31288BFF36F8F0C2202FBB1
:1024CC0004639B6C13F0C00301D09F4211D1012314
:1024DC00002002FB0466B36481F31188BFF36F8F95
:1024EC0030B90C23696803FB041463689847002017
:1024FC00F8BD4FF0FF30EFE7C293000051890000A8
:10250C0070B50D4606490446411A4911402205484A
:10251C00FFF7BAFF2B4601462046BDE8704018472E
:10252C00480900203C82000070B5002201210446BD
:10253C000520FFF7B7F80520FFF796F80F4800F0D5
:10254C00B5FC0F4B984215D100F0D0FC26690D4913
:10255C00304605F0E1FA00280BDB01252469094916
:10256C00B56404F1200005F0D7FA002801DB002047
:10257C00656570BD6FF00400FBE700BFC925000066
:10258C000000AD0BDC86000001460C2300224B43FF
:10259C00084870B5C4184833D4E91056184422645E
:1025AC0005F0FCFB2DB132462B46BDE870400248CD
:1025BC00184770BD480900203C820000012808B56E
:1025CC0006D0032808D0A0B90F4B9B6C5B0719D120
:1025DC00BDE80840FFF7D8BF0C4940F25E220C481A
:1025EC0005F08DFA40F25E21BDE80840074805F081
:1025FC000CBB064940F26222054805F080FA40F215
:10260C006221F1E708BD00BF48090020C293000019
:10261C005189000008B54FF02003EFF3118183F3CB
:10262C001288BFF36F8F124A136843F0020013F045
:10263C00010310600CD04FF05022D2F80C34D2F8B9
:10264C000C2413F0010303D00A4805F0A7FB012367
:10265C0081F31188BFF36F8F23B1BDE808400020D0
:10266C00FFF792BF0120BDE8084000F05DBC00BF41
:10267C00A0090020900900201FB500220123CDE9FC
:10268C0002236B46084ACDF800D0CDF804D005F0F3
:10269C00C8FB002805DB4FF480420023684601F09C
:1026AC0001FA05B05DF804FB5B7E0000074BD3E834
:1026BC00EF2F22F00201C3E8E01F0028F7D1D30767
:1026CC0002D4012000F082BC704700BFA00900209A
:1026DC0008B50848084B186005F00EFD38B10748DE
:1026EC00FFF794FE0548FDF733FF002008BD6FF09F
:1026FC001200FBE784820000A40900200D270000D3
:10270C000A2838B50446074D04D1286883680D2182
:10271C005B68984728688368E1B25B6898472046F5
:10272C0038BD00BFA4090020036810B55A090CBFBE
:10273C004FF0FF32002203F01F0322FA03F3DB07F2
:10274C0004460AD40E490F4840F2292205F0D7F965
:10275C0040F229210A4805F058FA236803F01F02B9
:10276C005B0922600AD00649064840F22E2205F089
:10277C00C6F940F22E21024805F047FA024810BD76
:10278C00199400005189000000258450F0B54B7954
:10279C00012B26D0032B21D110268B79032B1DD195
:1027AC00CC790CB1012C19D10A7912B1022A15D1AC
:1027BC000E220B684568B3F5164F2D6865D02DD8E1
:1027CC00B3F5165F64D016D8B3F5966F62D00AD8FD
:1027DC00B3F5967F61D0B3F5167F61D06FF08500AD
:1027EC0052E00026D9E7B3F5166F5CD0B3F5965FCF
:1027FC00F4D1374B3CE0B3F5E14F57D007D8B3F5E4
:10280C00615F55D0B3F5964FE8D1324B30E047F6C7
:10281C001227BB42E2D14FF4000329E0B3F5613F2C
:10282C0048D013D8B3F5963F47D009D84DF6C027FA
:10283C00BB4244D0B3F5614FD0D14FF46B0317E0DA
:10284C00B3F5E13FCAD14FF0EB7311E0B3F5612F53
:10285C0038D008D8204FBB4237D0B3F5E12FBDD1CB
:10286C004FF0E86304E01D4FBB42B7D14FF08053EB
:10287C00C5F82435036934432243043303C9C5F82E
:10288C006C2583E803000020F0BD4FF41D03EFE737
:10289C00134BEDE74FF49E23EAE74FF4A033E7E741
:1028AC004FF41C33E4E74FF41D23E1E70D4BDFE756
:1028BC000D4BDDE74FF06C73DAE70C4BD8E74FF4B8
:1028CC006503D5E74FF07063D2E74FF08063CFE735
:1028DC0000B0130000A04E0090D0030040420F0047
:1028EC000050270000C0750000F03A0000903A013B
:1028FC00F8B505460F46066905F024FC10B92C4BBB
:10290C001B7883B94FF02003EFF3118483F3128803
:10291C00BFF36F8F686805F0CCFA28BB84F311887D
:10292C00BFF36F8FEEE76424686805F0C2FA70B9E4
:10293C00012005F0DEFB013CF6D10021212001F045
:10294C0091FFF0E784F31188BFF36F8FF5E74FF039
:10295C002003EFF3118483F31288BFF36F8F686841
:10296C0005F0A7FA0028EDD0012206F8107F69685F
:10297C000B68C3F84465C3F848250022C3F820212E
:10298C00D3F82001C3F85821D3F858214A68D2064D
:10299C0041BF0822C3F800254FF48002C3F804237A
:1029AC0001229A6084F31188BFF36F8FF8BD00BFCA
:1029BC00E5130020F7B50F46164640B918491948DB
:1029CC00242205F09CF82421154805F01EF947B97E
:1029DC0013491448252205F092F82521104805F0DA
:1029EC0014F94FF4806500246FF01500A64201D84D
:1029FC0003B0F0BD331BB3F5806F38BF1D4600200C
:102A0C0001AB2A46391902F02FFB019BAB4203D1D3
:102A1C000028EDD12C44E9E76FF01500E8E700BF82
:102A2C006A940000518900004FF0E0239A691969FB
:102A3C0010B511F4803F98690849094B01D18242C5
:102A4C0006D21A680C6822441A604FF0E022126910
:102A5C001B680A681344181A10BD00BFB009002087
:102A6C00B809002020220020074B83F82320074BB5
:102A7C001860074B18604FF0E023586198611A6991
:102A8C0042F007021A61704700ED00E0B009002027
:102A9C00B809002008B5FFF7C7FF094A09491368B0
:102AAC00086803440B6000211160074A106813602A
:102ABC00181A02F065F9BDE80840FEF7DFBE00BF4A
:102ACC00B8090020AC090020A8090020F8B5394F3E
:102ADC0059B1431C09D14FF0E022136923F00103D3
:102AEC0013614FF07F433B60F8BD334B3D68B0F151
:102AFC00FF3F08BF1846441E002C53DD9C42A8BF64
:102B0C001C464FF02003EFF3118683F31288BFF3BA
:102B1C006F8F2A4800F0DAFD40B9294929488122F3
:102B2C0004F0EDFF8121264805F06FF8234800F0F2
:102B3C00E9FDFFF779FF4FF0000E4FF0E02222493C
:102B4C009369D1F800C06044DFF880C00860CCF80D
:102B5C0000E0DFF87CC0DCF800C0A0EB0C0CF44506
:102B6C0022DA4FF480643C603F689469013F5761FE
:102B7C000027A34238BF5B191B1B184497610860E0
:102B8C000E4800F0B1FD40B90D490E48AC2204F0DE
:102B9C00B6FFAC210A4805F038F886F31188BFF36C
:102BAC006F8FA1E70024ACE7B4F5806FB8BF4FF48A
:102BBC008064D8E7B0090020FEFFFF00B4090020B4
:102BCC002B89000051890000AC090020B8090020B5
:102BDC00A809002038B54FF02003EFF3118583F3DB
:102BEC001288BFF36F8F154800F070FD40B914497F
:102BFC001448812204F083FF8121114805F005F867
:102C0C000E4800F07FFDFFF70FFF0F4B1C680F4BBA
:102C1C001B68E41A0444094800F066FD40B90849F1
:102C2C000848AC2204F06BFFAC21054804F0EDFF22
:102C3C0085F31188BFF36F8F204638BDB40900208F
:102C4C002B89000051890000AC090020A809002044
:102C5C00054B1B68B3F17F4F01BF4FF0E0221369A6
:102C6C0043F0010313617047B0090020034845216C
:102C7C0008B504F0DDFF0020FFF7EAF8A59400008A
:102C8C002DE9F0430025214C214E54F8048CDFF83B
:102C9C00849085B0A84503D8002005B0BDE8F0832A
:102CAC00636A96E807001F6801AB83E807000C22F3
:102CBC001946384605F032F890B98FB1636A21692C
:102CCC001B681A6991420BD19A69A169914207D884
:102CDC00E169914204D962695B6932EA03030AD063
:102CEC00276A67B10C4804F00AFF404080F3118852
:102CFC004FF0040002DFE36801351C44CAE7484684
:102D0C0004F0FDFE636A1F60F5E700BF3C020000A3
:102D1C000C850000F0940000C79400005B4A08B5D5
:102D2C00D2F8D03043F00203C2F8D0304FF47F0316
:102D3C00D3F83021D3F83431BFF34F8F092A01BFB8
:102D4C004FF050230022C3F81421C3F8182105F0CA
:102D5C00BFF928B101224E4BC3F8382AC3F87825A5
:102D6C004FF47F03D3F83021D3F83431BFF34F8FB6
:102D7C00092A05D1012B1EBF0122454BC3F878252A
:102D8C0005F0A6F918B10E22424BC3F8E42E4FF40D
:102D9C007F03D3F83021D3F83431BFF34F8F092A96
:102DAC0006D100223A4BC3F80C270122C3F8102796
:102DBC000022D30003F57F03D3F80013BFF34F8F2A
:102DCC00013108D0D3F800130132D3F80433B2F533
:102DDC00807F0B60EDD1304BDA69BFF34F8FD10799
:102DEC0043D52E4BD3F80024012AFBD1C3F804257C
:102DFC00D3F80024012AFBD1274BDA69BFF34F8F9C
:102E0C00D2070AD5DA6922F00102DA61BFF34F8FDB
:102E1C00224AD2F80034012BFBD11F4A136ABFF3AC
:102E2C004F8F01330CD1136A23F0FF0343F02003BF
:102E3C001362BFF34F8F194AD2F80034012BFBD128
:102E4C000022164BC3F80425D3F80024012AFBD129
:102E5C00BFF34F8F0D49124BCA6802F4E062134363
:102E6C00CB60BFF34F8F00BFFDE71B6ABFF34F8FE3
:102E7C000133B6D0054AD2F88C3043F44063C2F823
:102E8C008C30084B084A1A6008BD00BF00ED00E00A
:102E9C000040005000A003500080FF000090035041
:102EAC000400FA05500000200090D00310B5044631
:102EBC0040B909490948BD2204F021FEBD2106484C
:102ECC0004F0A3FE064B1A7922B9012205481C60B6
:102EDC001A7110BD0448FCE72395000051890000CD
:102EEC00BC0900200000AD0B0C00AD0B08B50B4B62
:102EFC001B7943B90A490B48D62204F000FED621AF
:102F0C00074804F082FE0520FEF7BEFB20B9BDE8A1
:102F1C0008400520FEF7A8BB08BD00BFBC09002077
:102F2C002395000051890000254B10B51B790446F0
:102F3C0053B9244924484FF4897204F0E0FD4FF44E
:102F4C008971204804F061FE74B1012C2DD01D490B
:102F5C001D484FF4A27204F0D2FDBDE810404FF4AE
:102F6C00A271184804F051BE4FF05022D2F8183418
:102F7C00D2F81814C90312D503F00303022B0ED197
:102F8C00C2F818354FF050230022C3F80421D3F8AF
:102F9C0004210222C3F8042301229A6010BD4FF0D1
:102FAC0050230122C3F81825ECE74FF050230022E0
:102FBC00C3F80021D3F80021C3F804431C60EDE7EB
:102FCC00BC090020239500005189000038B5284B1E
:102FDC0004461B7953B92749274840F24B1204F099
:102FEC008EFD40F24B11234804F00FFE74B1012CFE
:102FFC0023D02049204840F2671204F080FDBDE840
:10300C00384040F267111B4804F0FFBD4FF05025CB
:10301C000223C5F80833C5F80441D5F8043101235F
:10302C0042F21074EB60D5F81834DB031FD5012085
:10303C0005F05FF8013CF6D119E04FF05025002364
:10304C00C5F80843C5F80031D5F800316C6042F280
:10305C001074D5F80C34D5F80C2403F00103D2030A
:10306C0005D523B1012005F044F8013CF1D138BD60
:10307C00BC09002023950000518900004FF050231B
:10308C00D3F8002110B552B10020C3F80001D3F8D9
:10309C0000210122C3F80823114B1B6898474FF0FD
:1030AC005023D3F804218AB10022C3F80421D3F8A9
:1030BC000421D3F81824D3F8181402F00302012ABF
:1030CC004FF0020103D1C3F818159A6010BDC3F874
:1030DC000813034B0120BDE810401B68184700BFC4
:1030EC00BC0900200E4B70B553F82040013053F84A
:1030FC002060A64200D870BDD4E900352846984718
:10310C0065B1EB6830B10028B8BF4042FF28A8BFBA
:10311C00FF2018705A7842F001025A700834E8E720
:10312C0044870000F7B504460E464FF02003EFF33A
:10313C00118783F31288BFF36F8F01F0C3FB00225A
:10314C00042C98BF1D4B054694BF53F824301C4BE0
:10315C000092452122461B4804F06AFD3EB1F369FA
:10316C00C3F308031BB14521174804F061FD35B1C9
:10317C00284604F0EDFF034608B1027802B9134B60
:10318C002A464521124804F053FD31462046FFF7EC
:10319C006DFD042C08D10F490F488F2204F0AFFCB1
:1031AC008F210C4804F031FD87F31188BFF36F8F2A
:1031BC00284603B0BDE8F040FEF792BE5C870000E5
:1031CC006095000076950000A39500006E950000B8
:1031DC00C9950000E69500005189000000230122EA
:1031EC0010B586B0CDE904230F22CDE902321822A6
:1031FC0001930B4B0B4C02FB00334FF4A0720A49AA
:10320C0004EBC01402FB001100932046074B00F0A6
:10321C008DF9637B23F00403637306B010BD00BF0C
:10322C00C409002030010020A8250020213700000F
:10323C00012208B5094B02201A70FFF753FF01F069
:10324C007BFE0320FFF74EFF00F0C4F904F04EFCA8
:10325C00034A137B23F00103137308BDE51300200D
:10326C00B00100200248034A0021121A04F08ABD62
:10327C0030010020A415002080B5354BA6B003F515
:10328C00006787F3088883F30A880024E023314D14
:10329C00314E85F82230EC772C766C76AC7685F84E
:1032AC002040EC766B6ADFF8B49043F4E0236B6259
:1032BC006B6A43F400236B62AC63EB689BB243F024
:1032CC00BF6343F40833EB60FEF770FDFEF78AF939
:1032DC004FF0FF33AB62EB62FFF750F8FEF78EFE58
:1032EC0040F20113ADF8243006ABB360CDE91F44B6
:1032FC0004F001FF2046FFF7F5FE0120FFF7F2FE78
:10330C0001F096F9164B174D0593012316494FF40E
:10331C008052CDE9034328464B46CDE90144009445
:10332C00F56100F003F980466A7B284622F004021E
:10333C006A7300F07FFE2046FFF750FF0B4B4A46A6
:10334C0041462846F36034757760FEF763FA00BF98
:10335C00E826002000ED00E0C40900203D3200000A
:10336C0052960000B0010020A8150020300100206A
:10337C00F8B5144C144D154EAC4208D931461448CE
:10338C003C2204F0BCFB3C21304604F03EFCAC4239
:10339C0001D30020F8BDD4E9041242EA010313F072
:1033AC0003030BD1E068A361834201D12034E3E72E
:1033BC00A76901331760A2610A44F5E76FF01500A5
:1033CC00E8E700BFDC000020DC0000205A9600007B
:1033DC00518900002DE9F74304460D4690461F46DF
:1033EC0000F108064FF02003EFF3118983F31288E4
:1033FC00BFF36F8F304600F069F940B91F49204880
:10340C00812204F07CFB81211C4804F0FEFB304639
:10341C0000F078F9A369C3B12B601B68A361E36961
:10342C000133E3610024304600F05EF940B91349E2
:10343C001348AC2204F063FBAC21104804F0E5FB0C
:10344C0089F31188BFF36F8F13E058EA070203D199
:10345C006FF00B042B60E6E7224649463046CDE977
:10346C00008700F04BFF044618B9064B9B685B695C
:10347C002B60204603B0BDE8F08300BF2B89000011
:10348C0051890000C40900202DE9F04104460D4685
:10349C0000F108064FF02003EFF3118783F3128835
:1034AC00BFF36F8F304600F011F940B91D491E482B
:1034BC00812204F024FB81211A4804F0A6FB30463B
:1034CC0000F020F9D4F81880B8F1000F0FD1204685
:1034DC0001F070F858B12A68C0F87880426100F0A9
:1034EC00A9FD39463046BDE8F04100F0AFBB2B6872
:1034FC00A26930461A602B68A361E369013BE36162
:10350C0000F0F2F840B907490748AC2204F0F7FA8A
:10351C00AC21044804F079FB87F31188BFF36F8F5B
:10352C00BDE8F0812B890000518900002DE9F043A2
:10353C0085B0DDF83C900446B9F10F0F0F461546E7
:10354C0098462ED11F4B98452FD104F15803C4E94E
:10355C001633109B00262373042363730E9BE81D04
:10356C0002930D9B20F0070001930C9B3D18C4E9BE
:10357C00197000932A46434639462046C4E906662C
:10358C00A66084F80E90E673E666FEF727F90E4BFC
:10359C0066659B6803B11B6F2846236705B0BDE8C1
:1035AC00F08309F110031E2BCFD940F2FF1207490B
:1035BC00074804F0A4FA40F2FF11044804F025FB7C
:1035CC00C3E700BF21370000C40900207F9600002C
:1035DC00518900002DE9F043374C384D384F87B0F6
:1035EC00AC4226460AD93946364840F2CF2204F07E
:1035FC0086FA40F2CF21384604F007FBAE4204F1C4
:10360C0030041BD300F058FB2B4C2D4EDFF8B4804C
:10361C00DFF8B490AC420AD93146404640F2EE2273
:10362C0004F06DFA40F2EE21304604F0EEFAAC42B2
:10363C0020D307B0BDE8F04300F060BF54F8043C61
:10364C0054E90C01059354F8103C049354F8143CC1
:10365C00039354F8183C029354F81C3C019354F80F
:10366C00203C009354E90A23FFF760FF54F8303CE8
:10367C005E65B5E7636A5A1C0FD04FF4004240F206
:10368C00E730002123EAE373C3FB020151EAC333A1
:10369C00276804D1384600F003FD3034BAE74FF404
:1036AC007A720023FCF7C4FD02460B4607F11800A2
:1036BC00494601F007FAF0E7DC000020DC000020AE
:1036CC007F9600005189000031410000006838B13C
:1036DC00044B00F003001B7DC01A18BF012070477B
:1036EC0001207047C4090020054903468A68087DFB
:1036FC00196802430020914204BF186001207047F2
:10370C00C4090020024A117D93680B430360704783
:10371C00C4090020104C08B5A36893F90E30002B97
:10372C0008DA0E490E48272204F0E9F927210B4844
:10373C0004F06BFA4FF02002EFF3118382F312883E
:10374C00BFF36F8F01F0A8FAA061FDF7CBFB002847
:10375C00F0D1FDF74DFFEDE7C4090020A296000063
:10376C00518900002DE9F341044617461E46EFF33C
:10377C00058343B15F496048652204F0C0F96521B7
:10378C005C4804F042FA4FF02003EFF3118883F306
:10379C001288BFF36F8F5948FFF798FF40B958490B
:1037AC005548812204F0ABF98121554804F02DFADB
:1037BC005248FFF7A7FFE368524AD3B1A06891685B
:1037CC00884233D057EA060332D14C48FFF78CFFBE
:1037DC0040B94B494848AC2204F091F9AC21484817
:1037EC0004F013FA88F31188BFF36F8F6FF00F009A
:1037FC0019E0916891F90E100133E36093683F482A
:10380C002161A360FFF770FF40B93D493A48AC22F3
:10381C0004F075F9AC213A4804F0F7F988F31188F3
:10382C00BFF36F8F002002B0BDE8F0812169E3E7A0
:10383C0091F90E1090F90E306FF07E029942A8BFEC
:10384C0019469142B8BF11468B423EDD04F089FC0B
:10385C00054622464146CDE90076284800F04EFD4B
:10386C000028E0D04FF02003EFF3118683F3128889
:10387C00BFF36F8F2148FFF729FF40B920491E483D
:10388C00812204F03CF981211D4804F0BEF91B484B
:10389C00FFF738FF236821699C420AD04BB193F99A
:1038AC000E309942A8BF19466FF07E039942B8BFFB
:1038BC001946A06804F055FC00B945B131460F48D3
:1038CC0000F0C4F96FF00A00ADE70025C1E70B4822
:1038DC00FFF70AFF40B90A490748AC2204F00FF978
:1038EC00AC21074804F091F986F31188BFF36F8F70
:1038FC00E8E700BFC396000051890000EC090020E6
:10390C002B890000C409002038B50446EFF3058369
:10391C0043B143494348C72204F0F1F8C72140485A
:10392C0004F073F9A368002B74D03F4DAA6893423E
:10393C0073D1E36843B93A493A48DF2204F0DFF81F
:10394C00DF21374804F061F9EFF3058343B13749C0
:10395C003448FD2204F0D3F8FD21344804F055F925
:10396C00AB68DB7B012B08D130492E48FE2204F0DA
:10397C00C6F8FE212D4804F048F9AA68D37B013B18
:10398C00D373E368012B05D9013BE36000F0B6FD6E
:10399C00002038BD4FF02003EFF3118583F312881C
:1039AC00BFF36F8F2248FFF791FE40B921491D48A4
:1039BC00812204F0A4F881211E4804F026F91C4849
:1039CC00FFF7A0FE2169A06804F0CBFB204600F0B5
:1039DC00F1FDA06058B190F90E202261002282679F
:1039EC0000F028FB2946124800F030F9CEE7E060E1
:1039FC000F48FFF779FE40B90E490A48AC2204F093
:103A0C007EF8AC210B4804F000F985F31188BFF364
:103A1C006F8FBBE76FF01500BBE74FF0FF30B8E7D7
:103A2C00C396000051890000C4090020E5960000EF
:103A3C00EC0900202B89000038B504464FF0200318
:103A4C00EFF3118583F31288BFF36F8F1248FFF7E2
:103A5C003DFE40B911491248812204F050F88121F1
:103A6C000E4804F0D2F80C48FFF74CFE204600F04C
:103A7C00A1FD48B10022826700F0DCFA2946BDE8BE
:103A8C003840054800F0E2B8D4E902329A4218BF37
:103A9C000133A360F2E700BFF00900202B8900007E
:103AAC0051890000F7B5044616461D46EFF3058311
:103ABC005BB152EA050308D02B492C48792204F05B
:103ACC001EF87921284804F0A0F84FF02003EFF3FA
:103ADC00118783F31288BFF36F8F2548FFF7F6FD2C
:103AEC0040B924492148812204F009F88121214858
:103AFC0004F08BF81E48FFF705FEA368ABB1013B41
:103B0C001B48A360FFF7F0FD40B91A491748AC22D7
:103B1C0003F0F5FFAC21174804F077F887F3118810
:103B2C00BFF36F8F002003B0F0BD56EA050313D12D
:103B3C000F48FFF7D9FD40B90E490C48AC2203F0F1
:103B4C00DEFFAC210B4804F060F887F31188BFF35B
:103B5C006F8F6FF00F00E6E722463946CDE900651E
:103B6C00034800F0CBFBDEE7109700005189000002
:103B7C00F00900202B89000010B5084C23685BB1BC
:103B8C00FFF728F803462068054A03440021BDE8E6
:103B9C001040136101F0B6B810BD00BF000A002040
:103BAC00C4090020F8B504460D464FF02003EFF38E
:103BBC00118683F31288BFF36F8F1E48FFF786FDC3
:103BCC0040B91D491D48812203F099FF81211A48F3
:103BDC0004F01BF81748FFF795FD4FF40047002140
:103BEC0040F2E730164B4FF47A7219610023E4FB74
:103BFC000701FCF71DFB002C124B16DC1860124B56
:103C0C001D60FFF7B9FF0B48FFF76EFD40B90A497D
:103C1C000A48AC2203F073FFAC21074803F0F5FF10
:103C2C0086F31188BFF36F8FF8BD0228B8BF02204E
:103C3C00E4E700BFF80900202B890000518900003F
:103C4C00C4090020000A0020FC09002010B503461E
:103C5C000C46C1B9EFF30582AAB9144AD16992682E
:103C6C00914210D0FFF740FD40B911491148C322D1
:103C7C0003F045FFC3210E4803F0C7FFBDE8104019
:103C8C000020FDF755BD1846FFF72EFD40B9084939
:103C9C000848AC2203F033FFAC21054803F0B5FF14
:103CAC0084F31188BFF36F8F10BD00BFC4090020CF
:103CBC002B8900005189000038B54FF02003EFF339
:103CCC00118583F31288BFF36F8F2048FFF7FEFC3A
:103CDC0040B91F491F48812203F011FF81211C4864
:103CEC0003F093FF1948FFF70DFDEFF3058343B184
:103CFC0019491848FD2203F002FFFD21164803F074
:103D0C0084FF164CA368DB7B012B08D112491148A8
:103D1C00FE2203F0F4FEFE210F4803F076FFA268AA
:103D2C00D37B013BD3730948FFF7DEFC40B908494C
:103D3C000848AC2203F0E3FEAC21054803F065FF14
:103D4C0085F31188BFF36F8F38BD00BFF8090020D1
:103D5C002B89000051890000E5960000C409002061
:103D6C000B4B10B599420C460AD10A490A4840F24D
:103D7C00E73203F0C4FE40F2E731064803F045FF9A
:103D8C00D4E9003213605A600023C4E9003310BD3B
:103D9C00300100203097000051890000836810B575
:103DAC00044653B90A490B4840F2832203F0A7FE9C
:103DBC0040F28321064803F028FF2146A068FFF754
:103DCC00CFFF637B23F0020363730023A36010BD5A
:103DDC00309700005189000038B50246124804F0B3
:103DEC00E5F9124D044600B9EC68AAB9AB6843B9C1
:103DFC000F491048892203F082FE89210C4803F0F8
:103E0C0004FFAB685A7BD20606D1A26922B9DA89C3
:103E1C007F2A01D9EB6138BDAB68A34201D0FFF713
:103E2C00ABFEEC61F7E700BFE4090020C4090020F9
:103E3C00309700005189000070B590F90D200446B0
:103E4C00002A437B06DA03F07F03014643731D48C7
:103E5C00FFF786FF637B63F07F0363731A4B9C420F
:103E6C0008D11A491A48BA2203F049FEBA21174858
:103E7C0003F0CBFE174A02F12005D2E90830AB4221
:103E8C001BD0D3B194F90E6093F90E108E420FD063
:103E9C00891B00290CDD5968C4E900310C605C6099
:103EAC009068031B58425841BDE87040FFF794BF1F
:103EBC00834202D01B68002BE6D1C4E90050046099
:103ECC005462EDE7E4090020300100203097000037
:103EDC0051890000C409002038B504464FF0200376
:103EEC00EFF3118583F31288BFF36F8F2448FFF72C
:103EFC00EDFB40B923492448812203F000FE8121C7
:103F0C00204803F082FE1E48FFF7FCFB1F4B204AA3
:103F1C0098681168884213D1FFF72EFE1848FFF7F6
:103F2C00E3FB40B917491848AC2203F0E8FDAC217B
:103F3C00144803F06AFE85F31188BFF36F8F38BD08
:103F4C0000211160134A1268BAB1C2897F2A14D8B1
:103F5C00427BD20611D1104A90F90E101268914290
:103F6C000BDB0E4A904208D01A69A24202DCFFF722
:103F7C0063FFD1E7121B1A61D0E70022FBE700BFF9
:103F8C00F80900202B89000051890000C409002089
:103F9C00F4090020000A0020FC0900203001002058
:103FAC0070B590F90D200446002A437B38DBDA0605
:103FBC0036D18269002A33D163F07F034373194BE6
:103FCC00984208D118491948BA2203F098FDBA2131
:103FDC00154803F01AFE164A02F12005D2E9083002
:103FEC00AB4218D0BBB194F90E6093F90E108E420F
:103FFC000CD0891B002909DD5A68C4E90032146011
:10400C005C600020BDE87040FFF7E6BE984202D02D
:10401C001B68002BE9D1C4E9005004605462F0E73E
:10402C0070BD00BF300100203097000051890000A6
:10403C00C409002038B504464FF02003EFF3118576
:10404C0083F31288BFF36F8F1248FFF73FFB40B921
:10405C0011491248812203F052FD81210E4803F0D0
:10406C00D4FD0C48FFF74EFB2046FFF799FF09489B
:10407C00FFF73AFB40B908490848AC2203F03FFD72
:10408C00AC21054803F0C1FD85F31188BFF36F8F98
:10409C0038BD00BFF80900202B89000051890000B1
:1040AC0038B504464FF02003EFF3118583F31288E3
:1040BC00BFF36F8F1848FFF709FB40B91749184831
:1040CC00812203F01CFD8121144803F09EFD12484F
:1040DC00FFF718FB637B5A0711D40F48FFF704FB5B
:1040EC0040B90E490E48AC2203F009FDAC210B4837
:1040FC0003F08BFD85F31188BFF36F8F38BD23F070
:10410C00040320466373FFF74BFF2946BDE8384094
:10411C000148FFF79BBD00BFF80900202B89000068
:10412C005189000070B504464FF02003EFF311865F
:10413C0083F31288BFF36F8F1B48FFF7C7FA40B9A0
:10414C001A491B48812203F0DAFC8121174803F03D
:10415C005CFD1548FFF7D6FA14F80B3C13F0280F4A
:10416C0010D154F8103CA4F1180513B12846FFF7F0
:10417C0015FE14F80B3C284623F0140304F80B3CF2
:10418C00FFF70EFF0848FFF7AFFA40B90749084898
:10419C00AC2203F0B4FCAC21044803F036FD86F3EA
:1041AC001188BFF36F8F70BDF80900202B890000B8
:1041BC005189000010B590F90D200446002A437B6C
:1041CC0006DA03F07F03014643730648FFF7C8FD88
:1041DC00054B9868031B58425841BDE81040FFF747
:1041EC00FBBD00BFE4090020C409002038B504461B
:1041FC000D46FFF7DFFF637B43F002036373F5B1FA
:10420C00154BA5609C4208D114491548BA2203F0FD
:10421C0076FCBA21114803F0F8FC2B689D4215D0AE
:10422C00A3B194F90E1093F90E20914208D0521AB2
:10423C00002A05DD5A68C4E9003214605C6038BDA0
:10424C006A68934202D01B68002BECD16B68C4E9FE
:10425C0000531C606C60F2E73001002030970000C6
:10426C00518900002DE9F0410446884616461D464A
:10427C004FF02003EFF3118783F31288BFF36F8F96
:10428C001A48FFF723FA40B919491A48812203F05A
:10429C0036FC8121164803F0B8FC1448FFF732FABB
:1042AC0020464146FFF7A2FF1048FFF71DFA40B920
:1042BC000F491048AC2203F022FCAC210C4803F04F
:1042CC00A4FC87F31188BFF36F8FB5F1FF3F08BFD4
:1042DC00B6F1FF3F08D032462B4604F118000649D0
:1042EC00BDE8F04100F0EEBBBDE8F081F80900201C
:1042FC002B890000518900003141000038B505467A
:10430C000D4B0C4698680D4B11461860DDE90423E3
:10431C00FFF7A8FF2846FFF7E7F940B90849094815
:10432C00C32203F0ECFBC321054803F06EFC2046CE
:10433C00BDE83840FDF7FCB9C4090020F4090020A1
:10434C002B89000051890000F8B504460D464FF04A
:10435C002003EFF3118683F31288BFF36F8F344879
:10436C00FFF7B4F940B933493348812203F0C7FB56
:10437C008121304803F049FC2D48FFF7C3F9637BDA
:10438C006DB2DA0651D1A269002A4ED103F07F0337
:10439C00637321462948FFF7E3FC637BA57363F045
:1043AC007F036373264B9C4208D126492248BA22CC
:1043BC0003F0A5FBBA21234803F027FC224A02F1A3
:1043CC002005D2E90830AB422AD04BB394F90E70D9
:1043DC0093F90E108F421ED0C91B00291BDD5A68A1
:1043EC00C4E9003214605C600120FFF7F5FC012485
:1043FC000F48FFF779F940B90E490F48AC2203F08A
:10440C007EFBAC210B4803F000FC86F31188BFF354
:10441C006F8F2046F8BD834202D01B68002BD7D18A
:10442C00C4E9005004605462DEE7A5730024DFE7A2
:10443C00F80900202B89000051890000E4090020B4
:10444C003001002030970000C409002070B50446EC
:10445C00183000F0E5FB4FF02003EFF3118683F3E7
:10446C001288BFF36F8F2048FFF730F940B91F490E
:10447C001F48812203F043FB81211C4803F0C5FB3C
:10448C001948FFF73FF994F90D20637B002A06DAEF
:10449C0003F07F03214617486373FFF761FC164D49
:1044AC00637BA86843F010036373031B58425841A5
:1044BC00FFF792FC0C48FFF717F940B90B490C4871
:1044CC00AC2203F01CFBAC21084803F09EFB86F3E6
:1044DC001188BFF36F8FAB68A34203D1BDE8704066
:1044EC0003F05ABE70BD00BFF80900202B890000F4
:1044FC0051890000E4090020C409002038B54FF0B0
:10450C002003EFF3118583F31288BFF36F8F2448D8
:10451C00FFF7DCF840B923492348812203F0EFFA76
:10452C008121204803F071FB204C1D48FFF7EAF86D
:10453C00A368DB7B53B91E491B4840F2853203F05C
:10454C00DEFA40F285311A4803F05FFBEFF3058386
:10455C0053B11749144840F2863203F0D0FA40F2B6
:10456C008631134803F051FBA2680020D37B013342
:10457C00D373FFF731FC0A48FFF7B6F840B9094985
:10458C000948AC2203F0BBFAAC21064803F03DFB12
:10459C0085F31188BFF36F8FBDE8384003F0FCBD85
:1045AC00F80900202B89000051890000C409002063
:1045BC003097000038B504464FF02003EFF3118517
:1045CC0083F31288BFF36F8F1648FFF77FF840B95B
:1045DC0015491648812203F092FA8121124803F002
:1045EC0014FB1048FFF78EF8204603F0DFFD04465D
:1045FC0028B1FFF7D3FB04F1180000F011FB0948B8
:10460C00FFF772F840B908490848AC2203F077FA72
:10461C00AC21054803F0F9FA85F31188BFF36F8FCD
:10462C00204638BDF80900202B8900005189000074
:10463C000021044B084603F12002C3E90822FFF7CE
:10464C00B1BA00BFC4090020F8B5EFF3058353B12C
:10465C003849394840F2DC4203F051FA40F2DC416F
:10466C00344803F0D2FA4FF02003EFF3118683F3B2
:10467C001288BFF36F8F3148FFF728F840B93049E3
:10468C002D48812203F03BFA81212D4803F0BDFA1D
:10469C002C4D2A48FFF736F8A96805F120004B7B12
:1046AC0003F07F034B73FFF75BFBAC68637B63F03A
:1046BC007F036373244B9C4208D11E491E48BA22C7
:1046CC0003F01DFABA211B4803F09FFAD5E9083113
:1046DC001E48834228D03BB394F90E7093F90E20F8
:1046EC0097421CD0D21B002A19DD5A68C4E900324B
:1046FC0014605C600120FFF76FFB1048FEF7F4FFBD
:10470C0040B90F490C48C32203F0F9F9C3210C48F6
:10471C0003F07BFA3046BDE8F840FDF709B88B4250
:10472C0002D01B68002BD9D1C4E900010C606C626B
:10473C00E0E700BF3097000051890000F809002025
:10474C002B890000C409002030010020E40900205E
:10475C002DE9F04105460E46EFF3058353B13A4976
:10476C003A484FF49F6203F0CAF94FF49F61364800
:10477C0003F04BFA55EA060303D1FFF765FF00205F
:10478C005FE06FF001044FF0FF33641B63EB060333
:10479C00012C73F1000302DA03F00EFD44194FF003
:1047AC002003EFF3118883F31288BFF36F8F28482F
:1047BC00FEF78CFF40B927492448812203F09FF96A
:1047CC008121244803F021FA234F2148FEF79AFF58
:1047DC00B868224B1860FFF7EDFCB8682A463346E0
:1047EC0018301F4900F06EF9BA681948537B43F032
:1047FC0010035373FEF778FF40B916491348C322D0
:10480C0003F07DF9C321134803F0FFF94046FCF790
:10481C008FFFBB685B7BDB060AD50B490B4840F26C
:10482C00195203F06CF940F21951074803F0EDF9F5
:10483C0003F0C2FC201A63EB0303012873F100039D
:10484C009DDBBDE8F08100BF30970000518900006E
:10485C00F80900202B890000C4090020F40900206D
:10486C003141000038B505460C46EFF3058353B1D2
:10487C00114912484FF4A56203F041F94FF4A561B8
:10488C000D4803F0C2F9B4F1FF3F08BFB5F1FF3F8B
:10489C0006D10B4B9868FFF7D9FD4FF0FF3038BDB0
:1048AC0028462146FFF754FF4FF47A7380FB03032D
:1048BC00C00B40EA4340F2E73097000051890000FA
:1048CC00C4090020014B9868704700BFC409002040
:1048DC002DE9F04104464FF02003EFF3118683F3EA
:1048EC001288BFF36F8F3E48FEF7F0FE40B93D498A
:1048FC003D48812203F003F981213A4803F085F900
:10490C003748FEF7FFFE637B1A0712D53448FEF7D3
:10491C00EBFE40B933493448AC2203F0F0F8AC213B
:10492C00304803F072F986F31188BFF36F8FBDE83E
:10493C00F08123F0200242F00801D20938D16173D2
:10494C00A36813B12046FFF729FA04F1180000F010
:10495C0067F94FF0000804F15807A56DBD4200D06F
:10496C0085BB0120FFF738FA204B9B68A342CDD1C1
:10497C00EFF30583002BC9D11948FEF7B5FE40B9FA
:10498C0018491948C32203F0BAF8C321154803F09B
:10499C003CF93046FCF7CCFE40F24B62144912480D
:1049AC0003F0ADF840F24B61114803F02EF9ADE77E
:1049BC0003F05F0343F0080321460E486373FFF7CF
:1049CC00CFF9BDE72846FFF7E9F905F1180000F02B
:1049DC0027F92846C5F87880FFF7E2FABDE700BF53
:1049EC00F80900202B89000051890000C40900201F
:1049FC0030970000E409002008B50648064A07492C
:104A0C00121A03F0B4F9BDE80840054A05490648F6
:104A1C0003F0ADB9000000202C010020B09700007D
:104A2C0000000000B097000000000020034B1B6842
:104A3C000BB9FEF7CFB80020704700BF040A002066
:104A4C00114B10B51C689C4208BF0024FFF7EEFF09
:104A5C0003466CB1D4E90402C01A62EBE37301287B
:104A6C0073F100020DDBB0F1004F73F1000301DBB9
:104A7C006FF00040054B1B6913B19842A8BF184654
:104A8C0010BD0020F6E700BF54000020C409002030
:104A9C0030B5036868B10A4A5268904209D043B1F4
:104AAC00D3E90421D0E90445121941EB0501C3E90E
:104ABC000421426813605A600023C0E9003330BD02
:104ACC0054000020B3F1FF3F08BFB2F1FF3F2DE9C6
:104ADC00F04104460E46984615461F4600F090805D
:104AEC00036843B1474948485D2203F008F85D214B
:104AFC00444803F08AF8A6604FF02003EFF31186C8
:104B0C0083F31288BFF36F8F4048FEF7DFFD40B987
:104B1C003F493D48812202F0F2FF81213C4803F0DD
:104B2C0074F83A48FEF7EEFD6FF001024FF0FF30DB
:104B3C00531B60EB0703002B1BDB364BD3E9001335
:104B4C00521A60EB0303551B63EB0707012D77F13A
:104B5C000003BCBF01250027C4E904572E4AD2E943
:104B6C00003C934218D1C4E9002CCCF800405460AE
:104B7C0026E0FFF75BFF013548F100082D1848EBE4
:104B8C00E070C4E90450E9E7091A65EB07059C4598
:104B9C00C4E90415E7D01B68002BE4D0D3E9040763
:104BAC00D4E90415814275EB070EEDDA411A67EB77
:104BBC000505C3E904155968C4E900310C605C6053
:104BCC00136893420BD09C4209D1FFF739FF18B1FF
:104BDC00124B1B69834202D00021FDF777FF0B4873
:104BEC00FEF782FD40B90A490748AC2202F087FF64
:104BFC00AC21074803F009F886F31188BFF36F8FD7
:104C0C00BDE8F0815297000051890000080A00208D
:104C1C002B8900003002002054000020C409002021
:104C2C0038B504464FF02003EFF3118583F3128857
:104C3C00BFF36F8F1548FEF749FD40B9144915486D
:104C4C00812202F05CFF8121114802F0DEFF0F4847
:104C5C00FEF758FD2368B3B12046FFF719FF002477
:104C6C000A48FEF741FD40B909490A48AC2202F056
:104C7C0046FFAC21064802F0C8FF85F31188BFF34C
:104C8C006F8F204638BD6FF01504E9E7080A002045
:104C9C002B8900005189000038B54FF02003EFF349
:104CAC00118583F31288BFF36F8F1348FEF70EFD47
:104CBC0040B912491248812202F021FF81210F488C
:104CCC0002F0A3FF0C48FEF71DFDFFF7B9FE0446EA
:104CDC000948FEF709FD40B908490948AC2202F021
:104CEC000EFFAC21054802F090FF85F31188BFF34D
:104CFC006F8F204638BD00BF080A00202B890000AA
:104D0C005189000070B504460D464FF02003EFF3B7
:104D1C00118683F31288BFF36F8F1648FEF7D6FC0B
:104D2C0040B915491548812202F0E9FE812112484B
:104D3C0002F06BFF0F48FEF7E5FCFFF781FE012840
:104D4C0005DDA04203DB29462046FDF7BFFE0948DE
:104D5C00FEF7CAFC40B908490848AC2202F0CFFE65
:104D6C00AC21054802F051FF86F31188BFF36F8F19
:104D7C0070BD00BF080A00202B890000518900007B
:104D8C002DE9F8430446FFF7A7F84FF02003EFF3A3
:104D9C00118583F31288BFF36F8F4248FEF796FCA0
:104DAC0040B941494148812202F0A9FE81213E4887
:104DBC0002F02BFF3E4F3B48DFF8F8803E4EFEF7EB
:104DCC00A1FC3C60D8F800403A6844454FEAE270D8
:104DDC00D6E9001E0BD054B1D4E9043C9A4270EBD6
:104DEC000C0923DA9B1A6CEB000CC4E9043C00247C
:104DFC0052184EEB0000C6E900203C60FFF720FE85
:104E0C002146FDF763FE2748FEF76EFC40B92649A4
:104E1C002648AC2202F073FEAC21234802F0F5FECA
:104E2C0085F31188BFF36F8FBDE8F88359184EEBEB
:104E3C00E370D31A3B6000220023C6E90010C4E9DA
:104E4C0004232046FFF724FE1648FEF74DFC40B91C
:104E5C0015491648AC2202F052FEAC21124802F061
:104E6C00D4FE85F31188BFF36F8F2046A368984753
:104E7C004FF02003EFF3118583F31288BFF36F8F8C
:104E8C000848FEF723FC40B907490848812202F084
:104E9C0036FE8121044802F0B8FE0248FEF732FCCF
:104EAC0090E700BF080A00202B8900005189000000
:104EBC00040A0020540000203002002070B54FF08E
:104ECC002003EFF3118683F31288BFF36F8F16481C
:104EDC00FEF7FCFB40B915491548812202F00FFE84
:104EEC008121124802F091FE0F48FEF70BFCFDF7F2
:104EFC0071FE104BD3E9004504190B4845F1000530
:104F0C00FEF7F2FB40B909490948AC2202F0F7FD63
:104F1C00AC21064802F079FE86F31188BFF36F8F3F
:104F2C002046294670BD00BF080A00202B890000CE
:104F3C005189000030020020024A0349034802F064
:104F4C00DEBD00BF748900007697000085970000D5
:104F5C0010B50C4C236813B10B4B1B682BB900F02C
:104F6C0073FE30B90122084B1A6001230020236024
:104F7C0010BD0138062801D9044810BD044B53F864
:104F8C00200010BD0C0A0020100A0020FE8FFFFF2D
:104F9C0070870000BFF34F8F0549064BCA6802F4B7
:104FAC00E0621343CB60BFF34F8F00BFFDE700BF40
:104FBC0000ED00E00400FA054FF0FE33002130B4A0
:104FCC00064A074D074C2B6013602360064A074CBA
:104FDC00EB606368C2F8001530BC184704148450A9
:104FEC000014845008148450000084505C0000208D
:104FFC00024BD0E90012C3E9001270475C0000209C
:10500C002DE9F043154CDFF85C80002818BF0446EE
:10501C00206883B040451DD016460D4620464FF4FF
:10502C00DE7104F1040900F0D3F804F58C774846DE
:10503C0000F0F2FC384600F01DFB4A4638462B4681
:10504C000749009600F02CFB08B9C4F8008003B0A7
:10505C00BDE8F083002003B0BDE8F083E813002026
:10506C00A55A0000A5BCC95AF0B50D4C0D4E002830
:10507C0008BF2046076883B0B7420ED100261D46F4
:10508C0000F58C7033460096144600F057FB002850
:10509C0018BF34462C6003B0F0BD0348FBE700BFDB
:1050AC00E8130020A5BCC95AE88FFFFF10B50446D1
:1050BC0030B16368DB0602D500232360636010BD4A
:1050CC00024B03485B689847F3E700BF5C00002085
:1050DC008C87000068B143683BB1DB0607D5BFF392
:1050EC005F8F0023036018467047034870470348DE
:1050FC0070476FF4E0407047EA8FFFFFE98FFFFFC6
:10510C0010B5044620B1002211232260636010BD4B
:10511C000148FFF751FFF6E7B4870000A0B14368E0
:10512C0083B1DB060CD50122D0E8EF3FC0E8E12FBC
:10513C000029F9D1012BF7D0BFF35F8F0020704706
:10514C0003487047034870476FF4E040704700BF56
:10515C00E98FFFFFEA8FFFFF2DE9F041144C026845
:10516C00C368D0E90156C4E90263C4E90025114BB8
:10517C000E684868104DC3E90060D1E902760869F1
:10518C00D5F81411C3E902761861CB060DD50023AE
:10519C0005F58870C5E94433C5E96D33904723683C
:1051AC0005F5DA70BDE8F0411847BDE8F08100BFA5
:1051BC006C0000207C000020E813002038B131B1D5
:1051CC00002201440346013081421A70FAD1704723
:1051DC0038B131B1002201440346013088421A70C3
:1051EC00FAD170472DE9F04FB2F5C07FAFB000F2A5
:1051FC002C81DFF86C9290460C464FF4D072002153
:10520C008246484602F0BEFD11A801F0E9F90022E1
:10521C0020232146A9F8102098FA98F4424609F167
:10522C001800A9F8124089F8173002F0A0FD80226E
:10523C00874B8849884C09EB0800CDE9024102767E
:10524C00019311A803F10C3301A9049301F0DEF9C9
:10525C000746002840F0D88008F1190805AE0DF17A
:10526C00240B10220021304602F08CFD45467B4C6D
:10527C009DF8142014F8103C9DF815C014F80F1C60
:10528C009DF81600534014F80E2C8CEA010C50407B
:10529C009DF8171014F80D2C9DF818E0514014F8D7
:1052AC000C2C8DF814308EEA020214F80B3C9DF88D
:1052BC0019E08DF815C08EEA030314F80ACC9DF89A
:1052CC001AE08DF816008EEA0C0C14F8090C9DF8F7
:1052DC001BE08DF817108EEA000014F8081C9DF8DE
:1052EC001CE08DF818208EEA010114F8072C9DF8AB
:1052FC001DE08DF819308EEA02029DF81E3014F86C
:10530C0006EC8DF81AC083EA0E038DF81B008DF89D
:10531C001C108DF81D208DF81E309DF81F1014F8F0
:10532C00053C9DF820C09DF821004B4014F8042C3E
:10533C0014F8031C8CEA020241409DF822C014F8B8
:10534C00020C9DF823E08CEA000014F801CC8DF8D7
:10535C001F308EEA0C0C8DF820208DF821108DF862
:10536C00220033463246012111A88DF823C001F0EA
:10537C0067F9102D94BF6D1B103D002863D11034BC
:10538C00002D7FF475AF0BEB07001022314602F0B5
:10539C00EEFC99F8033010370133202F89F80330D5
:1053AC007FF45FAF8022594611A801F02FF9074610
:1053BC0068BB54460AF120050DAB1A46012111A811
:1053CC0001F03EF9074610BB102220460DA91444EB
:1053DC0002F0CDFCAC42EFD111A801F011F94FF461
:1053EC00D0711F48FFF7F4FE58462021FFF7F0FE5E
:1053FC0001A81021FFF7ECFE30461021FFF7E8FE64
:10540C0038462FB0BDE8F08F05AE0DF1240B11A876
:10541C0001F0F6F84FF4D0711148FFF7D9FE584659
:10542C002021FFF7D5FE102101A8FFF7D1FE304651
:10543C001021FFF7CDFE50462021FFF7C9FE38465C
:10544C002FB0BDE8F08F0746E1E76FF03707F6E7BE
:10545C000001020308090A0B04050607340A0020A0
:10546C00240A00202DE9F0412022044688B00D4684
:10547C0068460021A6186F4602F084FCE27B0132DC
:10548C00D2B2E273002A4DD1A27B0132D2B2A27306
:10549C00002A47D1637B0133DBB26373002B41D10C
:1054AC00237B0133DBB22373002B3BD1E37A013333
:1054BC00DBB2E372002B35D1A37A0133DBB2A372DA
:1054CC00002B2FD1637A0133DBB2637253BB237A87
:1054DC000133DBB223722BBBE3790133DBB2E37113
:1054EC0003BBA3790133DBB2A371DBB9637901335D
:1054FC00DBB26371B3B923790133DBB223718BB99E
:10550C00E3780133DBB2E37063B9A3780133DBB228
:10551C00A3703BB963780133DBB2637013B92378A2
:10552C00013323703B4622460121304601F088F8B6
:10553C00804600282AD1103708AB9F429ED1009993
:10554C002B686A684B40019930464A40AE68029914
:10555C0000937140EB68039E019273402A69049E8C
:10556C000291564005996A6903935140D5E9062387
:10557C00069D05915540079A694653408022CDE916
:10558C000653049601F042F8804638B16846202153
:10559C00FFF71EFE404608B0BDE8F0811022204601
:1055AC000DEB020102F0E3FBF0E700BF2DE9F8433D
:1055BC0004468069B0F5C07F54D81D46C0F5C07351
:1055CC00AB424FD3C5F5C073181A9042164649D357
:1055DC00DFF89C904FF4C0720F464846002102F051
:1055EC00D1FB4946D4F89430A269D4F89800984776
:1055FC0000283AD1D4F818804DB12A46D4F894300A
:10560C00D4F8980009EB0801984770BBA84407B17F
:10561C00C6B9174942460846FFF7E4FD054638B1BE
:10562C004FF4C0711248FFF7D3FD2846BDE8F8834C
:10563C0020460F49FFF716FF05460028F0D101233D
:10564C002361EDE73946324609EB080002F08FFB87
:10565C000749B04442460846FFF7C4FD05460028FA
:10566C00DED1E5E76FF03705DFE76FF03305DCE7F8
:10567C00C40B002010B5A4220021044602F082FBCA
:10568C004FF0FF314FF6F072044B2161E26104F1EF
:10569C009C001B68BDE81040184700BFC0000020EC
:1056AC002DE9F043054685B00F4616466846102294
:1056BC000021994602F066FB1E4B05F19C08404602
:1056CC001B68984720B10446204605B0BDE8F0831E
:1056DC0005F12004204600F083FFAA69C5E9257670
:1056EC00EAB920222E69AA61002E20DB20466946E9
:1056FC00802200F08BFF044630B9334649462846D9
:10570C000C9AFFF753FF04460B4B40461B68984717
:10571C00002818BF0446204605B0BDE8F0832E696A
:10572C00002EE3DA172A02D8531C5E08DEE70026A7
:10573C00DCE700BFC4000020C80000202DE9F04FBA
:10574C00B2F5806F8DB0DDF8588000F2E480B8F5CA
:10575C00807F00F2DD80044615460E462022002193
:10576C0004A81F4602F00EFB6C4B04F19C09484642
:10577C001B6898478346002840F093802269E369B0
:10578C009A4200F392806369002B40F08E80B8F14E
:10579C00000F40F0A980DFF888A16F46002D00F0C3
:1057AC0098806F4604F120080EE0102DAB4628BF00
:1057BC004FF0100B304639465A4602F0D8FAB5EB8A
:1057CC000B055E4400F08580E37B0133DBB2E373B1
:1057DC00002B4DD1A37B0133DBB2A373002B47D13C
:1057EC00637B0133DBB26373002B41D1237B013329
:1057FC00DBB22373002B3BD1E37A0133DBB2E372D0
:10580C00002B35D1A37A0133DBB2A372002B2FD13D
:10581C00637A0133DBB2637253BB237A0133DBB29D
:10582C0023722BBBE3790133DBB2E37103BBA379A6
:10583C000133DBB2A371DBB963790133DBB2637182
:10584C00B3B923790133DBB223718BB9E37801331C
:10585C00DBB2E37063B9A3780133DBB2A3703BB95D
:10586C0063780133DBB2637013B92378013323708F
:10587C003B4622460121404600F0E2FE83460028CA
:10588C0093D0DAF80030484698470346202104A804
:10589C00002B18BF9B46FFF79BFC38461021FFF7E7
:1058AC0097FC58460DB0BDE8F08F424639460023B0
:1058BC002046FFF77BFEDFF868A000283FF46DAFB1
:1058CC004846DAF800309847834600283FF465AF25
:1058DC00E7E7204604A9FFF7C5FD83460028D0D191
:1058EC00236901332361CCE74246394604A8FFF70C
:1058FC0079FC834618B16F46DFF824A0C1E7204637
:10590C0004A9FFF7AFFD834600283FF444AFF2E74C
:10591C006FF0370BC5E76FF0350BC2E7C400002002
:10592C00C80000202DE9F043202B1D460646894671
:10593C0090468BB026D8DBB202AF31688DF804905C
:10594C008DF8053006F1040921B9484600F0BCFE7B
:10595C00044640B9012302224846336001A900F0F5
:10596C00C7FE044638B138462021FFF731FC2046EB
:10597C000BB0BDE8F0832A464146484600F0B8FE1D
:10598C000446F0E702AF1946104600233A4600F0F1
:10599C00B1FF04460028E6D12023B8461D46CCE7CB
:1059AC00F0B5D0F8F430A7B0002BD8BF02AE2CDD88
:1059BC0005460023D0F8084102AE0193A4F101077B
:1059CC003146D5F8F8409022D0F8FC0001ABB7FA7C
:1059DC0087F7A0477F09044610B9019B3BB9A7B1D3
:1059EC0030469021FFF7F4FB204627B0F0BD01466E
:1059FC0032462846FFF796FF50B9D5F80031019A88
:105A0C001344C5F80031002FEAD16FF03C04E7E7EE
:105A1C000446204627B0F0BD70B500250446294643
:105A2C001422C0F8F450F83002F0ACF9164B04F51F
:105A3C0086761B6830469847204640F8045B00F099
:105A4C0029FE124B30461B689847D8B9D4F8F4306D
:105A5C00AB4211DC0121202503EB830204EB820213
:105A6C00C2F8FC000A480B44C2F80451C2F8F80012
:105A7C00C2F80811C4F8F430064B3046BDE870404B
:105A8C001B68184770BD00BFC0000020C400002078
:105A9C00E9640000C80000202DE9F047202A88B0F6
:105AAC0078D83E4B00F5867904461B684846174665
:105ABC0088469847054640BB40F20116D4F8F430AE
:105ACC00002B63D02046FFF76BFF054600285FD103
